:100000006F00C02113000000130000001300000067
:100010001300000013000000130000001300000094
:100020001300000013000000130000001300000084
:08003000130000007300100032
:1000380000000000000000004C13000050130000F6
:1000480000000000B40100000000000000000000F3
:10005800B6010000B8010000000000000000000028
:100068001E12000000000000BC010000000000009B
:10007800BE010000C0010000C2010000C401000070
:10008800C6010000C8010000CA010000CC01000040
:100098003A130000D0010000D2010000D401000092
:1000A800D6010000D8010000DA010000DC010000E0
:1000B800DE010000E0010000E2010000E4010000B0
:1000C800E6010000E8010000EA010000EC01000080
:1000D800EE010000F0010000F2010000F401000050
:1000E800E61200001613000028130000FC010000AF
:1000F800FE010000000200000202000004020000ED
:1001080006020000080200000A0200000C020000BB
:100118000E0200001002000012020000140200008B
:1001280016020000180200001A0200000000000079
:080138000000000000000000BF
:10014000397101436EC619A0397141536AC866CA34
:1001500062CC5ECE19A0397101535AD056D252D416
:100160004ED64AD826DA22DC06DE3301614082828E
:1001700041114AC026C222C406C68282B24D410144
:10018000024D924C224CB24B4101024B924A224A00
:10019000B2494101024992442244B2404101828065
:1001A0002A8311C62300B3007D16050365FE8280F5
:1001B00001A001A001A001A001A001A001A001A037
:1001C00001A001A001A001A001A001A001A001A027
:1001D00001A001A001A001A001A001A001A001A017
:1001E00001A001A001A001A001A001A001A001A007
:1001F00001A001A001A001A001A001A001A001A0F7
:1002000001A001A001A001A001A001A001A001A0E6
:1002100001A001A001A001A001A001A09701002060
:1002200093814165175100201301C1DD176500005E
:1002300013050521970500209385C5DC138681876A
:1002400063FAC5008322050023A05500110591051E
:10025000E3EAC5FE13858187938501906377B50036
:10026000232005001105E36DB5FEFD42739002BC2D
:100270009D42739042809302800873A002309702DF
:1002800000009382A2DB93E2320073905230EF10B1
:10029000201E971200009382821073901234730014
:1002A0002030EFF2FFECB727014093870740631B34
:1002B000F500854513050020BD2581451305002067
:1002C0009D25C9BDB737014093870780E31BF5FE25
:1002D000854513050040812D814513050040CDB7AC
:1002E0005841B707F1E09387F7EF944D7D8F9C411C
:1002F000D58FD44DD58FD441A206D58FD98F5CC16F
:100300001845B7F7F1FF9387D77FD4457D8F9C4978
:10031000D58F94458606D58FD98F1CC55855B707FC
:1003200010FFFD177D8FDC29FD1793F7F70FD2071C
:10033000D98F5CD582801C4589C593E717001CC501
:100340008280F99BEDBF1C4589C593E707101CC54A
:10035000828093F7F7EFE5BF1C4593E787001CC544
:10036000828008450D81058982801C4593E74700FE
:100370001CC5828008450981058982801C4591C57C
:1003800037075000D98F1CC582803707B0FF7D1713
:10039000F98FD5BFA54763F7B7048D47138765FF6E
:1003A0003307F7020328C5009D47B397E70093C7BB
:1003B000F7FFB3F70701B396E600DD8E54C5994702
:1003C00063E3C70495477D163306F6025859FD4787
:1003D000B397C70093C7F7FFF98F3396C5005D8EBB
:1003E00050D982800D473387E502032805019D47D8
:1003F000B397E70093C7F7FFB3F70701B396E6009B
:10040000DD8E14C96DBFB14763E2C702954765161B
:100410003306F6021859FD47B397C70093C7F7FF95
:10042000F98F3396C5005D8E10D9828095474D16A1
:100430003306F6025855FD47B397C70093C7F7FF39
:10044000F98FB395C500DD8D4CD582801C41416785
:100450007917F98F1CC123200500232205002324CE
:100460000500B7070240232605001387870063169F
:10047000E500D8431367F70001A81387C701631786
:10048000E500D8431367070FD8C3B1A81387070344
:100490006318E500D8438566938606F0558FEDB75F
:1004A000138747046315E500D843BD66C5BF1387AE
:1004B00087056316E500D843B7060F00C5B7138755
:1004C000C7066316E500D843B706F000C1BF13871F
:1004D00007086316E500D843B706000FC1B71387B6
:1004E0004709E308E5F882801841E177BD07945198
:1004F0007D8F9C45D58F9449D58FD449D58F944D08
:10050000D58FD44DD58FD451D58F9455D58FD98FC4
:100510001CC1DC455CC19C411CC5DC415CC58280C2
:100520001C4189C593E717001CC182804167791778
:10053000F98FDDBF58410C415045B7070140938703
:1005400007403E9793C6F5FF39C29043758E90C31E
:10055000D043F18ED4C31443CD8E14C318419047B9
:100560009346F7FF758E90C7D047F18ED4C71445D8
:1005700041466399C6009447D98E94C7D447558F96
:10058000D8C78280B6979443558F98C382801C4306
:10059000F58F1CC38280B707014093870740C8CB03
:1005A00082809C4513F7070113F8F70001C7D84173
:1005B0003368E80037270240145B3707000F758F58
:1005C00045EB8546238CD186371701406315E5003E
:1005D0009A2135839AA18E2113F7F50F31C3184163
:1005E0008146054E930E80023D4F930F80042143B8
:1005F0003316DE00B3F8C500631016036392D70903
:1006000050C913962600B318CF0093C8F8FF33F7EC
:10061000E8003316C800518F8506E39B66FC18C1BD
:100620001307F00F6375B70454410146054E930E4E
:100630008002130F80042143130786003317EE0056
:10064000B3F8E500631117036390D70558C99318F1
:1006500026003D47331717011347F7FFF98EB318EC
:100660001801B3E6D8000506E31866FC54C1828081
:1006700037170140E311E5F603C7818729DF89BFFA
:10068000E391F7F910C9B5BFE393E7FD18C9C1B706
:10069000B706300013560501131705013378D5004E
:1006A0003D8A4183B707014063510502DC4F631760
:1006B000D80641068D46B396C60093C6F6FFF58F61
:1006C000F1E9370701405CCF8280D443B72702406D
:1006D00083A80703B707000FB3F7170189EB93D778
:1006E0001600F978CE06B3F71701CD82DD8EB70775
:1006F00030006314F806370600F17D163708014014
:10070000B3F7C60083264800F18E2322D800BDCD62
:10071000558112053315A700C98F8DA8B7061000A3
:10072000E98E85C28D46B396C60093C6F6FFF58F57
:10073000C9D955811375F53F12053315A700C98F27
:1007400049B755811375F53F12053317A700934636
:10075000F7FFF58FBDD5D98FADB7B7071000E98F7B
:1007600099CB8D47B397C70093C7F7FFF58FB706AF
:10077000000FD58F69BF558112053315A700934728
:10078000F5FFF58F3707000FD98FD9F537070140EF
:100790005CC3828055811375F53F12053317A7009E
:1007A0005DBF93F635003707014093F5C50F2E97CF
:1007B00010478A06BD47B397D70093C7F7FFF18F5D
:1007C0001CC71C473315D5005D8D08C78280B7371D
:1007D000004088C38280B7370040C8C38280B737E3
:1007E000004088C78280AD67373700409387A7AA4B
:1007F0001CC38280B567373700409387C7CC1CC3C2
:100800008280B7160240DC4251777D17F98FC98F7D
:10081000DCC28280371702405C43A146B18B6392F1
:10082000D70A5C435843C166C983BD8B758F89075E
:10083000C5466393D700C94701EF374702400327F6
:100840000780418B09CF37177A001307072021A8AB
:10085000371702405843B7060200758F6DD7371718
:100860003D0013070790B387E7021CC1371602400B
:10087000544237070020130707009182BD8ABA96B9
:100880009422B3D7D7005CC15442A1829D8ABA9604
:100890009422B3D6D70014C55442AD829D8A3697B0
:1008A0001823B706002093860607B3D7E7005CC578
:1008B000584239830D8B36971823B3D7E7021CC9EA
:1008C0008280B7177A009387072045B799C53717F5
:1008D00002405C4BC98F5CCB8280B7170240D84B7B
:1008E0001345F5FF798DC8CB828099C53717024033
:1008F0001C4FC98F1CCF8280B7170240984F1345F9
:10090000F5FF798D88CF828099C5371702405C4FFB
:10091000C98F5CCF8280B7170240D84F1345F5FFCF
:10092000798DC8CF828099C5371702405C47C98F3F
:100930005CC78280B7170240D8471345F5FF798D11
:10094000C8C7828099C5371702401C4BC98F1CCB82
:100950008280B7170240984B1345F5FF798D88CBFD
:1009600082801E319206558EC207C183F99BC20751
:10097000C1831EB11A2D1E31B73601404207418393
:100980001377C7F0518FC2074207938606C0C18311
:1009900041836304D502B70600406300D502938605
:1009A0000640630CD500B716004013860680630628
:1009B000C500938606C06319D500F59BDD8D93E5D0
:1009C00015001AAD0EB18280D59BCDBF1E31856852
:1009D0009388F8CFC207C183BD9BC207C1831EB1F4
:1009E0001A2DB2061E312206D18E33771701558F8C
:1009F00013984500B7360140C20742084207938664
:100A000006C0C1831358080141836304D502B706A9
:100A100000406300D50293860640630CD500B716EC
:100A20000040138606806306C500938606C0631BDC
:100A3000D50093F7F7FD3368F800936508011AAD08
:100A40000EB1828093F7F7F5DD8D93E50501C5BF03
:100A5000EFF20FF2B7370140938707C0631DF5002F
:100A600005648545130504807D3D8145130504809B
:100A70005D3D6FF02FF2B70700406319F500854523
:100A80000545C93581450545753DE5B7938707405F
:100A90006318F50085450945753581450945EDB76C
:100AA000B7170040138707806318E5008545114597
:100AB000513D81451145C9BF938707C0E31BF5FA36
:100AC000854521454135814521457DBF1E2137376B
:100AD0000140130707C0C207C1836304E50237075B
:100AE00000406300E50213070740630CE500371779
:100AF0000040930607806306D500130707C06316FE
:100B0000E500BA2193F7F7F8D98FFA2193F7F7CFD9
:100B1000C207C183D98F1EA1DE215EB59E211EB5FD
:100B2000B7370140938707C06314F5009C251EB9B1
:100B300085475EA982801E31922103D82500C20715
:100B4000C183F99BC207C1831EB11E3156211A2DE4
:100B5000C207C183420741831377C7F8518F92259B
:100B6000F59BC20633660601D18F37360140130666
:100B700006C0C1826310C502B225DD9B03D8E50023
:100B8000D18FD221ED9B93F6F6CFD18FD22533664C
:100B90000601D18E56A11AADFA215AB91EB1828032
:100BA0001E31E5769386F6CFC207C183BD9BC2078F
:100BB000C1831EB11E3152211A2D03D88500C207F0
:100BC000758F9621C18393F7F7FDA206558FB62145
:100BD00042064207B3E606019206D58FB7360140BA
:100BE000C207938606C041824183C183631ED5023A
:100BF000B62593F7F7F703D8C5009206D58FD6210F
:100C0000C207C183920693F7F7FBD58FFD769386D3
:100C1000F63FF18EF225C207C183336606010A064C
:100C2000D18E13960601418252A11AADFA211ABD46
:100C30001EB182801E31962103D88500C207C18370
:100C400093F7F7EFC207C1831EB11E3152215A2D0F
:100C5000C207C183420741831377C7F8558FB62176
:100C600093F7F7DF4206B3E60601A206D58FB73643
:100C70000140C207938606C04182C183631FD5022B
:100C8000FD769386F67FF58FB62503D8C500A206BC
:100C9000D58FD621C207C183A20693F7F7BFD58FA0
:100CA000F576FD16F18EF225C207C1833366060183
:100CB0001206D18E13960601418252A15AADFA2135
:100CC0005ABD1EB182801E317D777D17F98F1EB10E
:100CD0001A315E21562D65761306F6CFF18E9221DC
:100CE00003D88500C2072206D18E79767D16718FD2
:100CF000B221C206C183336606013206518F3736F0
:100D000001404207130606C0C1824183631AC50031
:100D100071767D16F18FD2251A06D18FC207C18355
:100D20005EA1FE2156AD2310F5041AB18280BA21CE
:100D30009E21D98FDA21D98FFA21D98F9A25D98F7F
:100D4000BA25D98FDA25D98F2312F5048280FD5771
:100D50005EA12310050023130500231105002304C1
:100D600005008280231005002311050023120500D1
:100D70002313050023140500231505002316050081
:100D800023170500828085472310050023110500E5
:100D90005EA12313050023140500828023100500A3
:100DA0002311050023120500231305002314050059
:100DB000231505002316050082801E2189C593E7AF
:100DC00017001EA18280C207C183F99BC207C1839D
:100DD000CDBF8357450491C52167D98F2312F504F0
:100DE0008280C607C583DDBF5E2501C6CD8F5EA5A7
:100DF000828093C5F5FFED8FDDBF4EA982801E2551
:100E0000C207C18393F7F7F8CD8F1EA582801E21FC
:100E100089C593E707081EA18280C207C18393F7A3
:100E2000F7F7C207C183C5BF1E2DC207C183DD9B73
:100E3000CD8F1EAD82801E2D7D771307F77FF98F32
:100E4000A205CD8FC207C1831EAD82805E2DC20771
:100E5000C183DD9BCD8F5EAD82801E2DC207C18315
:100E6000ED9BCD8F1EAD82801E2DA205C207C183D2
:100E700093F7F7BFCD8FC207C1831EAD82805E2D71
:100E8000C207C183ED9BCD8F5EAD82801E310547C9
:100E90003317B7001347F7FFF98F3316B600D18F1A
:100EA000C207C1831EB182801E3111473317B700BC
:100EB0001347F7FFF98F3316B600D18FC207C183EE
:100EC0001EB182801E25C207C183E19BC207C18378
:100ED0001EA51E25CD8F1EA582801E25C207C1839B
:100EE00093F7F7F7C207C1831EA51E25CD8F1EA558
:100EF00082801E2DC207C183CD9BC207C1831EAD58
:100F00001E2DCD8F1EAD82801E2D7D771307F73FDE
:100F1000F98F1EAD1E2DA205CD8FC207C1831EAD58
:100F200082805E2DC207C183CD9BC207C1835EADA7
:100F30005E2DCD8F5EAD82805E2D7D771307F73FEE
:100F4000F98F5EAD5E2DA205CD8FC207C1835EAD68
:100F50008280EFF2EFA19A21BE21D22196252A8428
:100F6000AE8401EBBE85F53AEE20228559376FF04D
:100F70006FA291456318B700BE85893CEE2022859B
:100F80006137F5B72145EE206317A7081A3092069E
:100F900013988700420741831377F7EF4207418395
:100FA0001AB04A2C1A304208420541811375C5F027
:100FB000518D558DB736014042074205938606C0D4
:100FC00041831358080141816304D402B7060040ED
:100FD0006300D40293860640630CD400B716004029
:100FE000138606806306C400938606C0631DD40082
:100FF0001377F7DF3368E800136708104AAC1AB0BC
:1010000022850537ADB7FD769386F65F758F5D8FC8
:1010100013670710E5B71A307D757D15698F1AB013
:101020004A2C8568B2061A309388F8CF2206558E6E
:10103000337515011398C700518DB736014042072B
:1010400042084205938606C0418313580801418136
:101050006304D402B70600406300D40293860640BE
:10106000630CD400B7160040138606806306C400E4
:10107000938606C0631FD400F977FD177D8F336810
:10108000E8008567B367F8004AAC1EB022856D356D
:10109000F9BDA1669386F6DF758FD98F0567D98F65
:1010A000E5B74A3982800A3D82801E294A25ED8FA4
:1010B0004205418189C76D8D3335A000828001458D
:1010C000828093C5F5FFC205C1810EA98280EFF22F
:1010D0002F8A1629F577FD17FD8EFE21DA250111DD
:1010E000D58F1EA95625FD779387379FFD8EDE216C
:1010F0002A84AE84D58F9625D58FB625D58F5EA54B
:101100005E29C207C18393F7F7CFD98F5EA9680024
:10111000EFF04FF0B7470140938707806318F4045E
:10112000E24756246547B387E702C206C186984066
:1011300063D006040607930640065224B3D7E7029D
:101140004206418633D7D702B3F7D702120763535B
:1011500006028E0793872703B3D7D7029D8BD98FBB
:10116000C207C1831EA405616FF0CF82D24755BF6D
:101170000A07D1B7920793872703B3D7D702BD8B4E
:10118000F9BF5E2589C50967D98F5EA58280797709
:101190007D17F98FDDBF93F5F51F4EA182800A21DF
:1011A0006D8D3335A0008280EFE2FFFA37490140B0
:1011B000AE89328481441309098063C58400228585
:1011C0006FE0BFFC930500044A85D13F65DDB3871E
:1011D0009900838507004A858504C205C181653F62
:1011E000E9BFB7060020AA8703A546071387019029
:1011F000AA9763EBE7003757002013070780636562
:10120000F70023AAF60682807D558280732510346C
:10121000828073252034828073253034828041118E
:1012200022C626C44AC2EF10607701C5194723843D
:10123000E18A3521EF10701883D7A1879306300615
:1012400063FFF6081389818A0325C901239D01865E
:10125000EF30205AAA8503A581859384818AEF20E7
:10126000901EAA851385C18DEF0000730347090006
:101270008D471384C18D6312F706404C05479305D3
:1012800000002285A38CE186EF20904A634F050081
:1012900083A5C1852285EF2010536348A0002285D5
:1012A000EF3060422328A90011A893050000228591
:1012B000EF207051634EA00023A804003244B7F71A
:1012C00000E023A20700A24412494101730020302C
:1012D0008567938787BB9CC8D5B70840D1B785077A
:1012E000239DF186E1BF8945370500407D3B19C547
:1012F000EF001056B707004075579AABC145370548
:101300000040653319C5EF00F061B70700403D5755
:101310009AAB730020301924B70700402398074088
:1013200093870740730020306524B7170040239847
:1013300007809387078073002030E924B7070140B6
:10134000938707401147D8CB7300203073002030BB
:1013500001111305400622CE26CCEF00902319651B
:1013600013054502EF3070106D352AC67535AA8415
:10137000713DB2452A84196513058503EF30C07AA3
:101380001965A68513058504EF30007A1965A285D5
:1013900013054505EF30407901A0EFE2DFDB39713D
:1013A000EF10100AEF00607F37150E00EF10300EBF
:1013B000EF10C065EF108036EF001059EF00C06EDF
:1013C000EF00007613054006EF00D01CEF00F0415F
:1013D000EF00503D1305007DEF106079EF00A0682D
:1013E00003A7C18183A881813AC003A8418283A653
:1013F000818283A7018203A7C1821385C18D8145A4
:101400000146252B1306400281456808B7490F00A5
:10141000EFE01FD91384818A9384C18D93890924B5
:1014200013898188EFF02FBC0820EF30803C2AD050
:101430000848EF30402F032AC4012AD29C4033D5FC
:1014400049033ED4EF30E03A2AD65285EF30603A75
:10145000DC4C2AD848503EDAEF30A0392ADC03555C
:101460002900EF3000392ADE6808EF10804E5DBF9A
:10147000B71702409843B706FFF81367170098C3E1
:10148000D843758FD8C39843B706F7FEFD16758FFE
:1014900098C39843B706FCFFFD16758F98C3D843D1
:1014A000B70681FFFD16758FD8C337079F0098C711
:1014B0003747024013070780144393E6060114C31D
:1014C000D8438966D8C3D843558FD8C3D843B70605
:1014D000C1FFFD1613670740D8C3D843758FD8C323
:1014E000D843B7063C00558FD8C39843B7060001D0
:1014F000558F98C3B70600029843758F75DFD843A0
:10150000B7160240719BD8C3D84313672700D8C3CE
:101510002147DC42B18BE39EE7FE8280EFE2BFC34E
:101520001384818A18208D47631BF7060145EF005D
:101530000073EF0010261C3003D521888607504C1D
:10154000A297B623AAA39D47B387C70218502A972C
:10155000158F545018D08506BA9713DA370054D037
:10156000232E44011307200D637BD7029983044C7B
:101570001389818A63F2A704EF30E01AAA895285A1
:10158000EF30202783A50186EF20E06BAA854E85EA
:10159000EF2070236352050299C0FD1404CC370775
:1015A00000408357C740C207C183F99BC207C1836C
:1015B0002316F7406FE07FBD93871400232CF900BA
:1015C0009307007DE3FD97FC91472300F900C1BF1D
:1015D0009387818A94230D47639AE600D4531307B7
:1015E000200D6370D702114798A3828037170040FF
:1015F0008357C780C207C183F99BC207C1832316E3
:10160000F7808280B717004083D647823146C206F2
:10161000C1822391D1889387818AD84F3356C702DC
:1016200063F7C600D4539307200D63E9D702B717B9
:1016300000401183239207824207B707004023929C
:10164000074241832396E7422398074003D7C740C8
:10165000136717002396E7406F0070128280EFE255
:101660003FB19387818A982399471384818A6306BF
:10167000F7001C4885E3230004001820994693775F
:10168000F70F63EEE60C19678A0713070706BA9788
:101690009C4382871C20F5F385471CA0F9BF03D526
:1016A0008188B714004093840480EF30805C373722
:1016B00001408357C7C0C207C183F99BC207C183DA
:1016C0002316F7C0370700408357C740C207C183BE
:1016D000F99BC207C1832316F740DE24C207C183EA
:1016E000F99BC207C183DEA4EF007009C630EF305A
:1016F000405F930720033365F5029307007DC20422
:10170000C18029053305F502635B9504138981883F
:1017100003552900EF30E00D83A54186EF20A0524C
:10172000AA8503A58186EF200052EF20D079930788
:1017300080076354F5001305800748C842054181BE
:10174000EF007035B717004023920782C52101458D
:10175000392323900188232E040089471CA06FE0C1
:101760007FA3B717004003D74782B717014093877D
:101770000780944783C7E1878982858A8607D58F4A
:10178000143093F7F70F4207238FF18693F5160075
:101790004183A9CDF9CB83D701881307007D6378F6
:1017A000F70C914723900188232204021CA0B71450
:1017B000004003D94482EF30C052F9473365F50247
:1017C0009307007D42091359090193840480510550
:1017D0003305F502E35525F918208947E311F7F899
:1017E000239204020145A52985478DBF9305F00F7B
:1017F000E393B7FA9307C00F238FF18637160040A3
:10180000939716002390018823120682A2970C500A
:10181000B623BAA35C502E97158F544C85075CD025
:101820008D47B387D70218D013060680BA978983ED
:1018300061475CCCB3D7E7025A32E36FF7FE01454C
:101840003929585093076004E3F3E7F6584CA96729
:101850009387F7C3E3EDE7F48D4723220402239037
:1018600001881CA0EF00E07299B78D4771B785071A
:101870002390F188F9B7B7170140938707809847FD
:1018800003C6D187118B6302E60223900188A38EE1
:10189000E18658509307100D63ECE7025848F5476E
:1018A00063C4E702F9475CC825A003D70188930603
:1018B000007D63E6E60005072390E188D9BF239009
:1018C000018891471CA0F1B793076027E3CDE7FC9F
:1018D00008485C48E305F5E863540500232A040042
:1018E0005C4863D4A7001385570048C8420541816E
:1018F000EF00701AADB503C7C187CD4763E4E700B9
:1019000095471CA013054006692191BD83C7C18777
:101910004D47E366F7E40397C180634607007D17F0
:101920002396E1802DBD1307803E85072396E18035
:10193000238EF186230004001DB5797122CC2A8400
:101940002E85B28506CE26CA4AC84EC652C43E89E6
:10195000368ABA89C28446D6EF20D07F08C0CE85A9
:101960005285EF20307F48C0A6854A85EF20907EC3
:10197000C25508C43255EF20F07D93070000F240B5
:1019800048C41CC85CC81CCC5CCC6244D2444249EC
:10199000B249224A45618280EFE2EFFB2A84084186
:1019A000EF20B019AA85AA84084CEF10507308CC18
:1019B00093050000268503290401EF206057635931
:1019C000A000930500004A85EF20E05F6340050218
:1019D000930500002685EF20005F635C05009305FA
:1019E00000004A85EF20C0546355A0009307000013
:1019F0001CCC0C4C0844EF2080664C40AA892685FC
:101A0000EF20E065AA854E85EF10706DAA89CA8522
:101A10002685EF2090124C44EF206064AA854E8505
:101A2000EF10F06B48CC93050000EF20C0596345E0
:101A3000A00208509305000083C99187EF20A058A9
:101A40006346A000930700006387090085476395FC
:101A5000F90083A7C1865CCC5C4C232A240104C80E
:101A60001CD06FE08FF2B7F700E023A0070023A29D
:101A70000700814694C70147D8C737070020832550
:101A8000870709671307077133D6E50281463D478B
:101A900090CBD4CB98C3B7E700E001572386E7404B
:101AA000056723A0E7108280EFE28FEC41118545A6
:101AB0000945EFE07FE5FD577C84B707002083A749
:101AC000870737871E0013070748B3D7E702370495
:101AD00000404C00130504402313010023150100AE
:101AE00023160100FD177C82EFE05FFE1305044022
:101AF0008545EFF00FDD0546130504408545EFF001
:101B0000AFAEB7E700E0A3860742096723A2E7105C
:101B1000854513050440EFF04FAA41016FE08FE7C0
:101B2000EFE20FE5411185451145EFE0FFDDFD577F
:101B30007C84B707002083A7870737871E00130719
:101B40000748B3D7E702371400404C001305048060
:101B5000231301002315010023160100FD177C82C9
:101B6000EFE0DFF6130504808545EFF08FD50546DD
:101B7000130504808545EFF02FA7B7E700E009477C
:101B80002387E742116723A2E710854513050480E8
:101B9000EFF0AFA241016FE0EFDFB7E700E0614790
:101BA0002388E70405671307A73313671700B8D323
:101BB0001307D002A388E70405671307673113678B
:101BC0001700F8D3130790022389E7041307001FB7
:101BD00013671700B8D73147A389E70405671307D0
:101BE000E72113671700F8D782801547AA87636E2D
:101BF000A702EFE2EFD719678A071307C707BA975B
:101C00009C432E8582876D2D6FE0CFD8EF006075E5
:101C1000E5BFEF00207FCDBFEF00D008F5B7EF00A4
:101C20007012DDB7EF00501CC5B782809387818AA0
:101C3000054798A3056713070777BAA3B716701768
:101C4000DAA7256793860677130707CAD4C394C714
:101C500098D3D8CF23A2070223AC07008280EFE2FB
:101C60002FD19387818A9C33AA851384818A850723
:101C700013F5F70F954763F3A700014508B0B53793
:101C80001C3085E3B74702401307000723A2E78013
:101C9000B70701409387074023A60700114798C75D
:101CA00015A00D476392E702B747024013070007EC
:101CB00023A2E780B70701409387074023A40700CA
:101CC0001147D8C76FE00FCD05476396E700B747C8
:101CD00002404147F1BF91466396D700B7470240A3
:101CE00041476DB789466388D70095466398D7000A
:101CF000B747024075BFB747024049BF858BC9DB74
:101D000055BF3717014093070780D443370600308B
:101D1000130707C0C19AD4C3D44393E63600D4C393
:101D200093060010D4CB94439206918294C39443BB
:101D3000D18E94C39306000894CBD4437D761306CA
:101D4000F60F93F6F6F0D4C3D44393E60603D4C358
:101D500093060020D4CB1443C19A14C3144393E6D2
:101D6000360014C3854614CBD443F18ED4C3D44378
:101D700093E60630D4C393060040D4CB1C4393F7BC
:101D8000F7F01CC31C4393E707031CC389471CCB14
:101D900019A385BFEFE24FBB2A84EF00300FB717BE
:101DA0000140138707805443938707C0370B0020F7
:101DB000C19A54C354431306B0209309400693E6D6
:101DC000B60054C39843419B98C3984313673700A8
:101DD00098C3054798CB03258B0793076041B357FA
:101DE000F50293D6070136878506B386C602935758
:101DF0001500B3D7D7029306400663E38600A28995
:101E0000416A7D1AC20993D909019386F7FFB3F796
:101E100047010969930A0971130909F4373401402C
:101E2000C206130404C0C18256B41AB49305A00FAD
:101E3000856BB3873703B3D7570333552503C207E1
:101E4000C1835EB8231C0402231E0402EF00F04E7F
:101E5000EF00D003B717014093840780D8409387E1
:101E600007C01306B0241377F7F0D8C0D840930505
:101E7000A00F1367070BD8C098431377F7F098C3E8
:101E800098431367070398C3094798CB03258B072B
:101E900093076049B357F50293D607013687850645
:101EA000B386C60293571500B3D7D7029386F7FFC0
:101EB000B3F74701B3873703C206C18256B41AB4D9
:101EC000231A0402B3D7570333552503C207C1832E
:101ED0001EBC231E0402EF005046EF00207BDC40B6
:101EE0007D771307F70FF98FDCC0DC4013870BB049
:101EF00013063029D98FDCC09C403707003093058A
:101F0000A00F920791839CC09C40938B7BBBD98F81
:101F10009CC0930700089CC803258B079307605259
:101F2000B357F50293D6070136878506B386C602F6
:101F300093571500B3D7D7029386F7FFB3F747013E
:101F4000B3873703C206C18256B41AB4231A0402F7
:101F5000231C0402B3D7570333552503C207C1839B
:101F60005EBCEF00903D2314040223167403231A71
:101F70000402231C0402231E04026FE06FA0B707B3
:101F800001409387074098436D9B98C31147D8CB76
:101F90008280B70701409387074098431367470043
:101FA00098C38280EFE2CF9C41118945014502C070
:101FB00002C202C402C6EFE0CFFE91473EC0C14755
:101FC0003EC40A8585473EC602C2EFE0AFD6114542
:101FD000EFE06FDCB7E700E0238C07403707000134
:101FE00023A0E71041016FE0EF9AEFE26F984111F3
:101FF00037140140930700024C00130504807C82D3
:1020000023130100231401002315010023160100EE
:1020100023170100EFE0EFD8F577938707C04C0056
:10202000130504C07C8202C6EFE0AFD7F1477C8283
:102030004C0093078004130504803EC6EFE06FD682
:10204000B7470240054723A2E78041016FE08F9424
:10205000EFE20F9237050040EFF0AF849384018DDB
:1020600005058AA037050040EFF0EF839A2093061C
:102070001500C206C182B307D740BEA0B7470F0004
:1020800093870724B3C7E702D6A09305A017138749
:10209000018DC207C183FEA0AD17C207C18363EEE5
:1020A000F506930785C1C207C1839305E07C63E60B
:1020B000F5069307F07C63F3D7049307803E1EA7D1
:1020C0008547A38CF1860A27EF10607A03A6018367
:1020D00083A64183EF10801F03A6818383A6C1835B
:1020E000EF10C01E03A6018483A64184EF00304395
:1020F000EF20500623AEA18C6FE0CF89130595C168
:10210000854742054181A38CF1868D470AA7330597
:10211000F50293075009E3C8A7FA23140700A38C1C
:10212000018655B70567130787BB23A8E18C938702
:10213000018D23A20700239407009387818A23A897
:10214000070023AA07008280EFE28F82397185455C
:102150000545EFE06FFB85450545EFE00FF93705D5
:102160001800854513050510EFE08FD2A1673ED218
:10217000371501408D474C103ED413050580930759
:1021800080043ED602C602C8231A010002CC02CE49
:1021900023100102EFE0EFC02808EFE05FBBB707B4
:1021A000002083A7870737470F0013070724B3D7FB
:1021B000E70241642C0837050040231D010023007D
:1021C0000102BD44FD17FC849307F4FF3ECEEFE00F
:1021D000FF8F6800EFE03FBB85476C00370500408C
:1021E0003EC8E48202C6EFE0DFD66800EFE0BFB988
:1021F000B707020091073EC66C00894737050040CB
:102200003EC8E482EFE0FFD49305000537050040A7
:10221000EFE0FFBE914537050040EFE0BFCA9305F0
:10222000000837050040EFE05FCB9147231AF10229
:10223000BC86130404060C18FD1737050040231B49
:10224000F10222D802DC02DEEFE0FFA70546894555
:1022500037050040EFE05FB90546C145370500404E
:10226000EFE09FB8894537050040EFE09FE5C145A5
:1022700037050040EFE0FFE4B7E700E023860742C0
:10228000056723A2E710854537050040EFE0FFB260
:1022900021616FD03FF08567938787BB2A8763F3FF
:1022A000A7003E878566B7370140938676BB2396A5
:1022B000D7C2239AE7C2239CE7C2239EE7C282804B
:1022C000B717014093870780D843419BD8C3D843B1
:1022D0001367B700D8C39443370700107D17758F75
:1022E00098C398433DC5B70600B0558F98C3B7173C
:1022F0000140138707805443938707C07D7693F688
:10230000F6F054C354431306F60F93E6060354C382
:102310009306002054CB9443C19A94C3944393E60C
:10232000360094C3854694CB5443F18E54C3544332
:1023300093E6063054C39306004054CB984313777A
:10234000F7F098C398431367070398C30947D8CB9E
:102350008280B7060030558F98C313070008D8CB8A
:1023600079B7B717014093870780D843419BD8C3FB
:10237000D8431367B700D8C39443370700107D17BD
:10238000758F98C398433DC5B70600B0558F98C365
:10239000B71701401387078054437D761306F60F65
:1023A000F18E54C35443938707C093E6063054C359
:1023B0009306004054CB944393F6F6F094C39443B1
:1023C00093E6060394C3894694CB544393F6F6F000
:1023D00054C3544393E6060354C39306002054CBDE
:1023E0009843419B98C398431367370098C30547A8
:1023F000D8CB8280B7060030558F98C313070008EA
:10240000D8CB79B7B7170140138707805443938718
:1024100007C093F6F6F054C3544393E6060B54C337
:102420009843419B98C3984325C91367B70098C345
:102430003717014093070780D4437D761306F60FC4
:10244000F18ED4C3D443130707C093E60630D4C338
:1024500093060040D4CB144393F6F6F014C3144310
:1024600093E6060314C3894614CBD843B70600305D
:10247000419BD8C3D84313673700D8C31307001054
:10248000D8CB98431207118398C39843558F98C3AC
:1024900013070008D8CB82801367370098C305471D
:1024A000D8CB79B7B7170140138707805443938778
:1024B00007C093F6F6F054C3544393E6060B54C397
:1024C0009843419B98C3984325C91367B70098C3A5
:1024D0003717014093070780D44337060030C19A6D
:1024E000D4C3D44393E63600D4C393060010D4CBB0
:1024F00094439206918294C39443D18E94C39306DD
:10250000000894CBD4437D761306F60FF18ED4C326
:10251000D44393E60630D4C393060040D4CB93074C
:1025200007C098431377F7F098C3984313670703DE
:1025300098C30947D8CB82801367370098C30547F3
:10254000D8CB79B7B71701401387078054437D76FE
:102550001306F60FF18E54C354430566130606B0F6
:10256000D18E54C3938707C098431377F7F098C36D
:1025700098432DC51367070B98C33717014093077E
:102580000780D44337060030C19AD4C3D44393E6BE
:102590003600D4C393060010D4CB944392069182A4
:1025A00094C39443D18E94C39306000894CBD44330
:1025B00093F6F6F0D4C3D44393E60603D4C393064C
:1025C0000020D4CB930707C09843419B98C39843FE
:1025D0001367370098C30547D8CB8280136707037A
:1025E00098C30947D8CB51BFB7170140138707805D
:1025F00054437D761306F60FF18E54C3544305669B
:10260000130606B0D18E54C3938707C0984313773F
:10261000F7F098C398432DC51367070B98C3371776
:10262000014093070780D443130707C093F6F6F0E1
:10263000D4C3D44393E60603D4C393060020D4CB7B
:102640001443C19A14C3144393E6360014C3854659
:1026500014CBD843B7060030419BD8C3D843136787
:102660003700D8C313070010D8CB98431207118343
:1026700098C39843558F98C313070008D8CB82801E
:102680001367070398C30947D8CB51BF37170140D9
:1026900093070780D44337060030130707C0C19A59
:1026A000D4C3D44393E63600D4C393060010D4CBEE
:1026B00094439206918294C39443D18E94C393061B
:1026C0000008D4CBD4437D761306F60F93F6F6F0CC
:1026D000D4C3D44393E60603D4C393060020D4CBDB
:1026E0001443C19A14C3144393E6360014C38546B9
:1026F00054CBD443F18ED4C3D44393E60630D4C331
:1027000093060040D4CB1C4393F7F7F01CC31C4343
:1027100093E707031CC389475CCB8280EFD2BFA33A
:10272000397185453545EFE04F9C856913850980F2
:102730008545EFE08F9B3705160085451305050499
:10274000EFD01FF5371401408D446149930700080D
:102750004C08130504803ECA26CC4ACEEFD07FE455
:1027600085474C08130504C0FC824ACE26CCEFD026
:102770005FE389474C08130504C0FC824ACE26CC8F
:10278000EFD03FE2930700104C0813050480FC8251
:102790004ACE26CCEFD0FFE0930700204C0813056B
:1027A0000480FC824ACE26CCEFD0BFDF93070040E6
:1027B0004C0813050480FC82373401404ACE26CCF5
:1027C000EFD03FDE130504C002D802DA02DC02DEDD
:1027D00002C402C62318010002D002D202D423167A
:1027E0000102EFE0EFA62800EFE06FD62C00130502
:1027F00004C0938979BB4EC602C423080100EFE0F0
:10280000EFAC0818EFE00FD6930700060C1813057D
:1028100004C03ED802DA02DC02DEEFE0CFB10C18D1
:10282000130504C0231B0102EFE08FB70C1813053A
:1028300004C0231B0102EFE0EFBF0C18130504C016
:10284000231B0102EFE02FC8130504C0A145EFE0F0
:10285000AFDD130504C0A145EFE0EFDD130504C0B3
:10286000A145EFE0AFDE130504C08145EFE0EFDEE8
:10287000130504C08145EFE02FDF8145130504C037
:10288000EFE0EFDF0810EFE06FD1B7071E003ED298
:102890000C10B7070020130504C03ED402D0231645
:1028A0000102EFE0CFC8130504C0014693050008FC
:1028B000EFE08FD3130504C001468545EFE0CFD28A
:1028C000130504C0014693050004EFE0EFD11305A2
:1028D00004C0014693050002EFE00FD1130504C0C8
:1028E00005468145EFE08FDA130504C005469145A2
:1028F000EFE0CFD9130504C00546A145EFE00FD99D
:10290000130504C011468145EFE00FDA130504C03A
:1029100011469145EFE04FD91146130504C0A1457A
:10292000EFE08FD8130504C08545EFE00FC913050C
:1029300004C08545EFE0EFC9130504C08545EFE00D
:102940000FCD8545130504C0EFE02FCB21616FD07B
:10295000DF831C3199E3A1471CB11C311307A0FA96
:1029600018A1BD8B938517008A0593E707011CB159
:102970002CB123010500B306B5002A878147102337
:102980000507B29793F7F70FE31BD7FE3CA109A009
:10299000EFD20FFE852E01456FD0CFFFEFD24FFD56
:1029A00003D5818813848188EF10B06483A50187E3
:1029B000EF106029EF10B06F03A6818483A6C18455
:1029C000EF00D01083A6418503A60185EF0010100B
:1029D000EF007064420541818D672AA0938737908C
:1029E00063E3A70203D541880967130717719307AB
:1029F0001500C2073335E500C18313451500239246
:102A0000F1886FD02FF981470145D5BFEFD24FF63E
:102A10001D711306000281454808EFD06FF8854507
:102A2000114502C402C602C8EFD03FEC854513052C
:102A30000020EFD09FEB3165EFD0BFDC37150140B0
:102A400089472C0013050580372401407C8402C887
:102A5000EFD03FB513050440EFD0BF84854737075B
:102A60000E004C08130504403ECC3ECE3AD0230461
:102A7000F10202CA02D2EFD0BF8685451305044099
:102A8000EFD07F8C854513050440EFD0DF8A130516
:102A90000440EFD07F8C930404402685EFD07F8CD8
:102AA0006DFD1305044037240140EFD01F8C9304C3
:102AB00004402685EFD01F8C6DFD1306C0028145B2
:102AC0004818EFD0EFED85450545EFD03FE0B7045E
:102AD000024013858400EFD07F979307C4443EDA09
:102AE000938781883EDC8547BEC093070010BEC631
:102AF00093070040BEC893070002BECA4C188D67FA
:102B000013858400BECC02DE82C282C482CEEFD0A6
:102B1000BF9D138584008545EFD09FA09D46054647
:102B2000130504408545EFD0FF8685451305044015
:102B3000EFD0DF8425616FD0EFE53306B502B7F73C
:102B400000E0D843799BD8C3B336B50290CBD4CB41
:102B500098431367070198C398431367170298C3F4
:102B6000D843058B75DF9843799B98C38280EFD259
:102B70002FE02A84156513055555EFD05FC5014533
:102B8000EFD07FC52285EFD09FC5EFD0DFC5EFD056
:102B90007FC66FD02FE0B7170140938707C0D84793
:102BA00013470720D8C78280B7170140938707C013
:102BB000D84713470710D8C78280EFD26FDB83A7AF
:102BC000C188850723A6F18803C6818A1147630B54
:102BD000E6049376F60F636FD700371701401307AB
:102BE00007C09DC6930700205CCB930700101CCB49
:102BF0006FD04FDA9947E39DF6FEB71701409387F0
:102C000007C01307002098CB13070010D8CBCDB70F
:102C10009306001014CB1307007DB3F7E702E9FB1E
:102C20009D3FF9B737170140130707C093060020EF
:102C300014CB1307007DB3F7E702DDFBB5374DBFBB
:102C4000EFD26FD1411185453545EFD01FCA3714FA
:102C50000140130900208D49414A4C00130504C06E
:102C60004AC24EC452C6EFD0DF93930400104C000A
:102C7000130504C0130404C0648252C64EC4EFD0CE
:102C80005F92232A240104C841016FD00FD0EFD2F4
:102C90002FCE2A841165011185452505EFD0FFC48B
:102CA00085451145EFD0DF9E930700047C823715E0
:102CB00001408D473EC44C00E147130505C03EC6A8
:102CC000EFD03F8E22C837440140B70708000C08F8
:102CD000130504803ECC02CA231E0100EFE02FBF83
:102CE000854513050480EFE0CFC905616FD08FCA19
:102CF000374701408357078093F70708E5DF231222
:102D0000A7808280EFD2CFC62A84B304B5006314B3
:102D100094006FD02FC808200504D93FCDBF79712A
:102D200093D7450122D426D24AD056CA5EC6939480
:102D3000C50006D64ECE52CC5AC862C493F7F77F70
:102D40002A84B28B3689B18093DAF501638C07103F
:102D50001307F07F6387E7148E04135BD501336B91
:102D60009B0037078000336BEB00131A3500938903
:102D700017C08144014C935749011314C90093F7BC
:102D8000F77F31801359F901D5C31307F07F6384AE
:102D9000E7080E0413D7DB01418F938717C0370470
:102DA0008000598C93983B00B389F94001463D4718
:102DB000B3C62A0163689718173700001307C72D99
:102DC0008A04BA949C40BA9782871D8F13068003A9
:102DD000635CE640814701460147B2502254D20766
:102DE000D18FFE06D58F92540259F249624AD24AD7
:102DF000424BB24B224C3A85BE8545618280930797
:102E0000F07F01460147D1BF81469307F07F370627
:102E100008000147D9B7B368740193891980639991
:102E2000081093E424000144094651B7B3687401C3
:102E3000638B080E630604362285EF107048AA875C
:102E4000930655FF7547938887FF158F3314140138
:102E500033D7EB00598CB3981B01CE979389373F3A
:102E60000146B1B733EBA40063090B0C638B04304C
:102E70002685EF10F0442A87930655FFF547130A7D
:102E800087FF958FB3944401B357F40033EB970059
:102E9000331A44019307D0C0B389E7408144014C01
:102EA000D9BD33EBA40063190B06014AA144930971
:102EB000F07F094CC9B5328C89476302FC3E8D47CF
:102EC000E304FCF48547CA86E306FCF09387F93FE8
:102ED0006350F02213F778006319073A37070001AF
:102EE000618F19C7B70700FFFD177D8C93870940D5
:102EF0001307E07FE345F7F093D838001317D401A8
:102F00001316940033671701318293F7F77FF1B5F9
:102F100056895A84D2884DB7268B2A8AB1449309A0
:102F2000F07F0D4C89BD93E414000144054641B582
:102F300093E43400DE880D469DBD014A91448149E9
:102F4000054C15BD6365642363018B225283FD1913
:102F5000DA87014A131784001355070133D4A702F7
:102F600013D68801598E131806011358080193953A
:102F7000880013570301B3F7A702B3088802C207FA
:102F8000D98F63F81701B2971307F4FF63F9C724C9
:102F90003A84B3871741B3D8A702131703014183BB
:102FA000B3F7A702B30F1803C2075D8F6378F70169
:102FB00032979387F8FF637FC720BE884204C162BF
:102FC000336414011383F2FFB3786400935E040149
:102FD00013DE050133F36500330F13033307F741A5
:102FE000B3081E0393570F01B38F6E02FE98C69766
:102FF000B38ECE0363F3F701969EC16FFD1F93D886
:103000000701B3F7F701C207337FFF01F698FA977C
:10301000636B171363071713B307FA40330717419E
:10302000333AFA00330747416303E624B358A70253
:1030300093DE07013377A702330F1803420733E704
:10304000EE00637BE7013297938EF8FF6367C72436
:103050006375E725F91832973307E741B35EA70296
:10306000C207C1833377A7023308D8034207D98F39
:1030700063FB0701B2971387FEFF63EEC72063FC73
:103080000721F91EB297C208B3E8D80113950801C9
:1030900013DF08014181B30E6502B3870741330591
:1030A000AE0213D70E0133036F021A952A97330E1F
:1030B000EE036374670041652A9E41687D181355CD
:1030C0000701337707014207B3FE0E017295769729
:1030D00063F7A70EB2971383F8FF3E8863E7C7161E
:1030E00063E5A71C638EA71C9A8893E81800F9BBB8
:1030F0000547E39C07CC9387E9413396F8003336C4
:10310000C000B317F400D18FB3D8E800B3E8F800DB
:1031100093F778003354E40081CF93F7F800114718
:103120006388E70093874800B3B817014694BE88C8
:10313000B7058000E18D854701460147E39F05C83B
:10314000D5A8E37BFAECB30EBA0033BF4E01B30F40
:10315000CF007E97768A930FF4FF6377E60663606D
:103160001711638CE80E7E8445BDE3611ADF1357A7
:103170001A001313FB0193571B003363E3007E0A0D
:10318000D1BBEF10F01393065501F1471307050269
:10319000E3D6D7CE930785FF331BF400014ADDB990
:1031A0005E85EF10F01193065501714793070502F4
:1031B000E35AD7C8611581483394AB0079B9E396D7
:1031C000A7F2E30507D039B7E31FE6F8E3090FF8E4
:1031D0007E8499B5E373F7DFF9183297C5B3E3F945
:1031E00017DB7914B29775B37D46E356E6F00556C2
:1031F0001D8E930700023356C4006308F7009387BF
:10320000E943B317F400B3E8F800B3381001B3E8AA
:10321000C80013F7780001461DC393F7F800114763
:1032200001446389E70093874800B3B8170133343A
:103230001001BE88131694001317D401318293D85D
:10324000380033E7E800814749BE9A88E31FA8E8C1
:10325000E30EB7C693E8180095B9E3F6FEF0AE9E0C
:1032600033BFBE00329F7914768A7A9775B31307FD
:1032700020C09387F93FFD58E3CCE9E61387480067
:10328000B33817014694BA8891B913F7F80011467C
:10329000E306C7C4E5B7BA8EFDB3F68875BBCA8628
:1032A0009307F07F014601470DBE13931500333895
:1032B000B30032983E98F9189A85E30BA8F835B513
:1032C000E3E5E5FE9A88E317B7F809B1397193D7BA
:1032D000450122DC26DA4ED662CC9394C50006DE88
:1032E0004AD852D456D25AD05ECE93F7F77F2A846A
:1032F000328CB18093D9F501638607161308F07FED
:103300006382071B8E049355D501C58DB7048000D9
:10331000CD8C131A3500938B17C0014B814A93D77C
:1033200046011398C60093F7F77FE28E1354C80046
:1033300013D9F601F5C71308F07F638E07079316BC
:103340003400938717C09355DC01D58D338E7701F8
:10335000B7068000A94733E4D500931E3C00014521
:1033600013031E0063C6671933C82901C2860946C4
:10337000634766079308FBFF854563EB151B630DE9
:10338000C51285473688631FF50681478146014788
:10339000F2506254D207D58F7E08B3E70701D254AA
:1033A0004259B259225A925A025BF24B624C3A8508
:1033B000BE852161828033678401138EFB7F6309A0
:1033C0000710056733C8290113070780136B3B00FB
:1033D0002946C2863383EB00634366430D450546A9
:1033E000331666011377065305C389476386FA0CC3
:1033F0008D476388FA12568585472684D28E368893
:10340000E305F5F81A8E79A493770624C5EF1376B1
:103410008608630F0610CA86A284768AAA8AF1B744
:10342000B3678401FDC3630B04322285EF1040694A
:103430002A8E130755FFF547930E8EFF998FB3160B
:10344000D401B357FC0033E4D700B31EDC01338E44
:10345000CB41130EDEC0A947014513031E00E3D57F
:1034600067F179A033EAA400630C0A0836C66388C2
:10347000042C2685EF10C064B2462A87130655FF38
:10348000F547130A87FF918FB3944401B357F400B3
:10349000DD8C331A44019307D0C0B38BE740014B56
:1034A000814AB5BD33EAA40063160A048144214B66
:1034B000930BF07F894AA5B536889307F07F814644
:1034C0000147F9B501489307F07FB7060800C9B571
:1034D000856793870780136B2B00A9463383FB0016
:1034E00063D2662B814EB9470945AD466387D73015
:1034F000CE86E5BD2A8A314B930BF07F8D4A05B508
:103500008144114B814B854A19BD5E8E136B1B00A4
:10351000A9470144814E054513031E00E3D667E524
:10352000C1BF01489307F07FB706080001478DB57A
:10353000C1651387F5FF93570A0193D80E01337ABB
:10354000EA00B3FEEE003307DA033386D7031355E0
:103550000701B3864803B2963695338F170363731A
:10356000C5002E9FC1631386F3FFB375C500B37604
:10357000C400718F935F0401C205B302DA02BA95E9
:1035800041813387D70213D60201338A4F033A9A17
:103590005296B387F7036373E6009E97416913045D
:1035A000F9FF3377860093D30401B3F28200E18CF4
:1035B000420733849E02169741823E963A95B38223
:1035C000980293570401B38ED303F6929697B3886B
:1035D000780263F3D701CA984169930EF9FFB3F2F9
:1035E000D701B37ED401C202C183C6973384960249
:1035F000B388D201B386D30293520401B3849F02ED
:10360000B694A692B38E7F0263F3D200CA9EC16FB6
:10361000FD1FB3F6F2013374F401C2067A95A29647
:1036200036963337E5003297AA98BA9733B5A80093
:103630003E95B336D6003336C700D18E33B7E70098
:1036400013D60201B337F5005D8FB29636977697A1
:10365000939E9800935775012607B3EEBE0033641E
:10366000F700B33ED00193D77801B3EEFE00B70761
:1036700000012605E18FB3EEAE0089CF93D71E007F
:1036800093FE1E001317F401B3E7D701B3EEE70072
:1036900005801A8E9307FE3F635AF00413F77E00ED
:1036A00001CF13F7FE0091466308D70013874E0041
:1036B000B33ED7017694BA8E37070001618F19C7E0
:1036C000B70700FFFD177D8C93070E401307E07FBF
:1036D0006345F70A93DE3E001317D4019316940056
:1036E0003367D701B18293F7F77F5DB10547D5E323
:1036F000130EEE413396CE013336C000331EC401A3
:10370000B3DEEE003366C6013366D60193777600EA
:10371000B355E40081CF9377F60011476388E70043
:103720009307460033B6C700B2953E863705800042
:103730006D8D854781460147E31C05C475A0EF10D8
:10374000203813065501F147B24613070502E3D9A5
:10375000C7D26115014AB314A40035BB6285EF10CE
:10376000203613075501F147130E0502E3D5E7CCC8
:103770006115814E3314AC00D9B99307F07F8146AF
:10378000014739B133C82901C2860144814E094538
:10379000F9BE1D8F93068003E3C9E6BEFD46E3D95B
:1037A000E6F48556B387F64093060002B357F4005B
:1037B0006308D700130EEE43331EC401B3EECE01EF
:1037C0003336D0015D8E1377760081461DC3937723
:1037D000F600114781456389E7009307460033B639
:1037E000C700B335C0003E86939695001397D50168
:1037F000B1820D82518F814761BE3A8429B93D471C
:103800006317EB000148B7060800014751B622874D
:10381000AD470D45D9B993D74501370610001307B9
:10382000F6FF93F7F77F1308E03FAA866D8F0145F7
:10383000FD816353F80091C182809305E0417D557D
:10384000E3CCF5FE930530439D8D7D45518F634A52
:10385000B5009387D7BE3317F70033D5B600598D1F
:103860008280130530411D8D3355A70082804111A0
:1038700022C406C62A8405CDEF1080249307E041B8
:10388000898F294793F7F77F634DA7022D47098F4B
:1038900055053357E4003314A400B24022853207A3
:1038A00022443183D207D98FBE8541018280B24044
:1038B0002285814722440147D207D98FBE85410125
:1038C000828055153317A4000144B2402285320787
:1038D00022443183D207D98FBE85410182803707C8
:1038E000800041117D179356750113D67501B3778A
:1038F000A70026C26D8F4AC01376F60F13F9F60F94
:1039000006C622C49354F501FD818E070E07B30647
:10391000C9406381B404635FD00031EE63010712D4
:103920001386F6FF630E062A9305F00F638BB61617
:10393000B28689A8F1C2B3062641631C091CF5CFE3
:103940001385F6FF6309052C1308F00F638906152C
:10395000AA86F9A226886358D01469C61306F00F08
:103960006301C91437060004518F6D466359D61E92
:103970008507CA8689A01306F00F6304C9123706AB
:103980000004518FED45054663CDD50013060002B6
:10399000158E3316C700B356D7003337C00033E651
:1039A000E600918F37070004B3F6E700CDEA13F77E
:1039B0007700CA8649C713F7F70011466303C700AB
:1039C0009107370700047D8F3DCB13851600130741
:1039D000F00F26886301E508139767001375F50F4C
:1039E0002583B24022445E05598D9317F801924415
:1039F00002495D8D41018280130619001376E60F9E
:103A000063140614631A09086383072075CB338592
:103A1000E74037060004698E63030622B307F740C8
:103A2000AE84BDA009CF1386F6FF6303061A930583
:103A3000F00F6388B606B2860DBFAE84BA8713074F
:103A4000F00F8D836390E60CC1CF01481305F00F92
:103A50003707400079B71305F00F014759B77D17B5
:103A600033F4E7002285EF10A0056D153314A40090
:103A700063412507B3062541850693070002958F0C
:103A8000B317F400B337F0003354D400C18F81462C
:103A900013F777000DF335B7639907145DD7AE843C
:103AA000BA878D8355B7B1C2B30626416319090E93
:103AB000D1D79385F6FF638D05101305F00FE381D1
:103AC000A6FEAE86ED4563D6D51293071700B286E3
:103AD000DDB5B70700FCFD17B306A940E18F4DBF68
:103AE00026881305F00F0147EDBD9306190013F664
:103AF000E60F55EE6319090E63840712631407126B
:103B00008D838146A60713D7970013F5F60F2688F5
:103B1000C9BD1305F00FE304A6F837050004C98FEB
:103B20006D480545634DD80013050002158D33958A
:103B3000A700B3D6D700B337A00033E5F600B3072C
:103B4000A7403289AE84B9BD3384E740B70600048C
:103B5000E18EBDEA01F801480145014759B5130658
:103B60000002158E3316C7003357D700B336C00096
:103B7000558FBA97370700047D8FE30A07E2930653
:103B800019001305F00F0147E38DA6E43706007E08
:103B900013D717007D16858B718FD98FD5BD9305EF
:103BA000F00FE30FB6EEB7050004CD8F21BF13066B
:103BB000F00FE382C6EA3E979357170013F677009B
:103BC000E31B06DE8D833DBF3304F740AE8459BD51
:103BD000BA97370700047D8F8946054945FBC1BB6D
:103BE000998F0549C1B3E38D07EAE31007E68D839A
:103BF000A1BD93050002958DB395B700B3D6D7004C
:103C0000B337B000DD8EB387E6003289A5B721D780
:103C1000AE84BA87F5B5B307F740AE84054959B30A
:103C2000BA87F9BDBA97370600047D8E814659DA06
:103C3000370700FC7D17F98F85468D83E1B5AA878C
:103C400019D98D83C1B57971935775014AD04ECE7C
:103C500006D69319950022D426D252CC56CA5AC8F9
:103C600093F7F70F93D999001359F501F1CF130783
:103C7000F00F6381E70E8E0937070004B3E9E9000E
:103C8000938A17F80144014B93D77501139A950055
:103C900093F7F70F135A9A0093D4F501C1C713078E
:103CA000F00F6380E70C0E0A37070004336AEA005E
:103CB000938717F80146BD4633479900B38AFA4007
:103CC00063EB861A97260000938606410A04369411
:103CD0001C40B69782879307F00F8146B25022545A
:103CE00013957701558D7E0792540259F249624A25
:103CF000D24A424B598D456182808D47630EFB004D
:103D000085476315FB0E2A8781478146C1BF8D47D2
:103D10002685D289631CF60C01479307F00FB7067E
:103D200040006DBF631D0A0813641400B547334794
:103D30009900E3E287FA972600009386E63D0A049D
:103D400036941C40B6978287639B09041144814ACC
:103D5000054B1DBF639009042144930AF00F094BE2
:103D600025B763130A02136424007514AD46334764
:103D70009900E3EB86F8172600001306663D0A0457
:103D800032941440B2968286136434009307F00F85
:103D90000D4615B73144930AF00F0D4BF5B54E851E
:103DA0002EC6EF00F0519307B5FFB399F9009307C2
:103DB000A0F8B245B38AA7400144014BF1B5528542
:103DC000EF0010509307B5FF331AFA009307A0F8DD
:103DD000898F0146CDB5938A1AF089474A85E31E3B
:103DE000FBF02A879307F00F8146CDBD2A87938782
:103DF000FA076351F00493F6790099C693F6F90037
:103E000011466383C6009109B7060008B3F6D900CE
:103E100081CAB70700F8FD17B3F9F90093870A08BC
:103E20009306E00FE3C9F6EA93966900A58293F73B
:103E3000F70F6DB5054699C71D8EED458147814643
:103E4000E3CEC5E89386EA09B396D900B336D0002D
:103E5000B3D7C900D58F93F6770099C693F6F700CC
:103E600011466383C6009107B7060004FD8ED5CACC
:103E700085478146A5B5C16613185A00FD169355AE
:103E80000801B376D80063F8490733D6B902CE8764
:103E9000FD1A81493305D602B3F7B702C207B3E76B
:103EA000370163F8A700C2979308F6FF63F6070788
:103EB0004686898F33D5B702B3F7B702B306D5026A
:103EC000C20763F2D702B3850701B3B8F500130345
:103ED000F5FFAE876398080063F6D5007915B387C0
:103EE000050111A01A854206958F498EB337F0005F
:103EF000B369F600EDBD93D7190033D6B702FE09BA
:103F000093D909013305D60241BF26852A87EDBB27
:103F10000147B7064000D9B3E3FCA7F87916C2976A
:103F200049BF9A0793D6970081474DBB268555BD5B
:103F300013567501370780007D1793D675011376E8
:103F4000F60F1308F00FB378A7009357F5016D8FA4
:103F500013F5F60FFD8163050603630A050105EA03
:103F600009E939C3639E0804A1C92E85828039E717
:103F700019E2E38B08FE6399B7009DCF3E858280EE
:103F8000639E08026305C50205459DE782806DDDDD
:103F9000E39CB7FEE34AC5FEE341A6FEE36617FFD6
:103FA0000145E3ECE8FC8280E39008FE828019E79B
:103FB000E39CB7FC014582807D55828079558280E3
:103FC000E38EB7FCD1B713567501370780007D1714
:103FD00093D675011376F60F1308F00FB378A70088
:103FE0009357F5016D8F13F5F60FFD8163060603F8
:103FF000630A050105EE11E929CB639F0804B9C9DD
:104000002E858280094501EB19E2E38A08FE638B65
:10401000B7020545A1E38280639C0802E31BC5FE4D
:10402000094575FBE397B7FE014582807DD1E39298
:10403000B7FEE340C5FE6347A600E36C17FD0145EC
:10404000E3FBE8FC81CB3E858280E39408FC828020
:10405000094582807D558280E381B7FE5DBF79711D
:104060009357750152CC56CA1317950006D622D421
:1040700026D24AD04ECE5AC893F7F70F935A9700DC
:10408000135AF501638B07101307F00F638DE710C8
:1040900013973A00B7060004B36AD700938417F861
:1040A0000149014B93D775011394950093F7F70FCE
:1040B000258093D9F501F9C71307F00F6382E7064E
:1040C000938717F8338597000E0437070004A94734
:1040D000598C81469304150063CF270FB3453A01ED
:1040E00009472E88634C27057D190546636E261304
:1040F0006382E60C8547C2856394F60681470147D3
:10410000B250225413957701598D9397F50192542B
:104110000259F249624AD24A424B5D8D4561828022
:104120001385F40F49CCB3453A0113693900294787
:104130002E88938404106349271F8D460547331743
:1041400027011376075319CE89476305FB068D4770
:104150006304FB02DA8685475684C285E380F6FA5B
:10416000268505AA9377072481EB137787084DCF1F
:104170004E88A28A368BC9BF81459307F00F370757
:104180004000BDBF41E0268513691900A947854657
:1041900093041500E3D427F53DA863950A0411495B
:1041A0008144054B01B7639A0A0221499304F00F39
:1041B000094BCDBDC2859307F00F014791B7136935
:1041C0002900A9479384041039478946E3D827F189
:1041D000AD47E30FF7F8528885BF31499304F00FDC
:1041E0000D4BC9B556852EC6EF00900D9307B5FF50
:1041F000B39AFA009307A0F8B245B384A7400149E7
:10420000014B4DB52285EF00B00BB387A4401307D7
:10421000B5FF1385A7F8A9473314E400814693043A
:104220001500E3DD27EB45BFC1689387F8FF13D680
:104230000A0113580401B3FAFA00E18FB386570359
:10424000B307F60213D70601B30A5803BE9A56976E
:10425000330606036373F700469641687D18B3770B
:104260000701B3F60601C207B69793966700135489
:104270000701E9833337D0003294D98F1A045D8C5B
:10428000B7070008E18F91C79357140005885D8C2C
:1042900026859307F507635FF0021377740019C74B
:1042A0001377F40091466303D70011043707000821
:1042B000618F19C7B70700F8FD177D8C93070508B4
:1042C0001307E00F6349F70413176400258393F77E
:1042D000F70F3DB5854699C79D8E6D4681470147CD
:1042E000E340D6E21307E5093317E4003337E00073
:1042F000B357D400D98F13F7770019C713F7F70016
:1043000091466303D7009107370700047D8F01CBE7
:1043100085470147F5B39307F00F0147D5B39A07D7
:1043200013D797008147E9BBBD4681453707400059
:10433000E308D9DC2D478D4661BDB70780004111E8
:10434000FD1713D6750133F7A70093567501ED8F4E
:1043500026C24AC09354F50106C622C41376F60F4E
:104360001305F00F13F9F60F26880E07FD819396BB
:1043700037006303A60493C51500B307C940638FD4
:10438000B400635AF03035E2638F06141386F7FFEA
:104390006302062A638FA702B287A9A86359F03087
:1043A0007DCA6308A90237060004D18E6D466352A8
:1043B000F6140507CA878DA8930719F0D5E693C5AB
:1043C00015006383B40E638D071863090910AE846A
:1043D00036870D8313F814001305F00F3DCB014809
:1043E0001305F00F37074000ADA0E304A9FE370620
:1043F0000004D18EED45054663CDF500130600029D
:104400001D8E3396C600B3D6F600B337C00033E630
:10441000F600118FB7070004B376F7006394061017
:1044200093767700CA87E1C29376F70011466383DB
:10443000C6001107B7060004F98ED5C68507930696
:10444000F00F13F81400638BD70C1A0713F5F70F4E
:104450002583B24022445E05598D9317F80192449A
:1044600002495D8D41018280E39FB4F4B9C36311B9
:10447000091C9307F00F3DC79385F7FF6389051269
:104480001305F00F6386A71AED4763DBB71A13878E
:104490001600B28751BFA1CA1386F7FF6309061041
:1044A000E389A7F2B28719B789C7E30409FC01477A
:1044B0000DB79307190013F6E70F63150614631879
:1044C00009166306071A6396061A0D8381472607A5
:1044D000258313F5F70F13F81400A5BF9307F00F0A
:1044E00065EBAE8436879306F00F0D83E384D7EE39
:1044F000F9BF130600021D8E3396C6003336C00086
:10450000B3D6F600D18E3697B7070004F98F89DB52
:10451000930719009306F00F6393D70A1305F00F62
:10452000014705BFFD173374F7002285512B930710
:10453000B5FF3314F40063CA2705B3872741850705
:10454000130700021D8F3317E4003337E0003354A4
:10455000F400418F814793767700E39706ECD9BD4D
:104560009307190093F7E70F85EB631A090A65CFE4
:10457000A9DEB307D740370600047D8E6308061016
:104580003387E6408147AE84F9B7370700FC7D17D3
:10459000B307F940618FC1B73304D740B7070004B0
:1045A000E18FD1E359F00148014501475DB53697E8
:1045B000B7060004F98E89470549E38306E6370606
:1045C000007E935617007D16058BF18E558F61B7CF
:1045D0001385F7FF41C51308F00FAE84638A070502
:1045E000ED45854763CCA50093070002898FB3177B
:1045F000F7003355A700B337F000C98F3387F64073
:10460000328909BD1306F00FE38AC7F0BA9613D7B3
:10461000160013767700E31906E00D834DBD11EF08
:10462000E38F06DA6DB33384E640AE84FDBD11E757
:10463000368745B3158F0549F1BBE38C06D845B3E2
:10464000930700028D8FB317F700B355B700B33748
:10465000F000DD8D3387D50032897DB53387E640A4
:10466000AE84054945BBA1D2AE843687B9BD368735
:10467000A9BD369737060004798E814759DEB70702
:1046800000FCFD177D8F0D83854791B589DF3E873F
:104690000D8381472DBDE38507EC33052641AA87AD
:1046A000E30009E4B70700045D8FAE8415BFE38221
:1046B00007E0B305264163140900AE876DBBB70759
:1046C00000045D8FD1B3370680001357750193073F
:1046D000F6FF1377F70F9305E007B3F6A70093579C
:1046E000F50163DBE5009305D00963D9E5003705E3
:1046F00000807D153E95828001458280930550099A
:10470000D18E63CDE500130660093307E640B3D6CA
:10471000E6003305D040F5F3368582801307A7F60F
:10472000B396E600FDB7411106C622C426C215CDD8
:104730001357F5413344A700198CAA87228593D4D7
:10474000F701BD2E1307E009B307A740130760095F
:10475000634AF70221476308E50861153317A4008F
:104760002607258313F5F70F21A081440145014752
:10477000B24022445E059397F401598D92445D8DB9
:1047800041018280130790096343F704154793069C
:10479000B5FF6304E5003314D400B70600FCFD1632
:1047A000137674003377D40011CE3D881146630B25
:1047B000C400110737060004798E09C69307F00973
:1047C000758F898F1A07258313F5F70F55B71307D0
:1047D000B50195463317E400898E3354D40033373E
:1047E000E000598C5DBF260413579400130560093F
:1047F00041B70DCD411122C406C62A84D1249307A6
:10480000E009898F130760096347F7022147630AAC
:10481000E50861153317A4002607258313F5F70F64
:10482000B24022445E05598D410182800145014715
:104830005E05598D8280130790096348F704154778
:104840009306B5FF6304E5003314D400B70600FCFB
:10485000FD16137674003377D40011CE3D881146CF
:10486000630BC400110737060004798E09C693074D
:10487000F009758F898FB24022441A0713F5F70F9C
:1048800025835E05598D410182801307B501954648
:104890003317E400898E3337E0003354D400598C49
:1048A00075B72604135794001305600995BF9357F5
:1048B000750193F7F70F41111387170022C426C221
:1048C00006C6931495001377E70FA5801354F501DE
:1048D00015C313D7340093870738F6041315F40172
:1048E000B2402244D207D98FC98FBE852685924413
:1048F000410182809DE7B1C02685D922A94763C5C1
:10490000A7042D47098F9307550133D7E400B394CB
:10491000F400930790383207898F318393F7F77F3C
:1049200075BF99CC13D73400B70708005D8F3207E5
:10493000F60431839307F07F55B78147014779BF6C
:104940009307F07F014759BF130755FF3397E400E2
:104950008144C1B793D7450193F7F77F9396C5007C
:1049600013861700A5821357D5011376E67FFD81C4
:10497000D98E1318350005C2138607C81307E00F38
:104980006354C7049307F00F0147DE0733E5E700E0
:10499000FE054D8D828033E7060189EB01482DCB62
:1049A00026081357980093F7F70FC5B79307F00F32
:1049B00069DF9307F00F37074000DE07814533E5D5
:1049C000E700FE054D8D8280635CC004131765000F
:1049D0003337E0008E061358D801558F336707012F
:1049E00093777700E9CB9377F70091466385D70CEF
:1049F0001107B7070004F98FDDC79307160093F777
:104A0000F70F0147DE0733E5E700FE054D8D828095
:104A100081470147DE0733E5E700FE054D8D8280C3
:104A20002557E347E6FE7945B7088000118D7D479D
:104A3000B3E616016350A7047957118F13060002DD
:104A400033D7E6006308C500938727CAB396F600FC
:104A50003368D800333800013368E8009377780072
:104A6000B9C79377F8001147639CE70213583800E1
:104A700081473DB7938727C83317F800B396F600F0
:104A80003337E0003358A800558F3367E800937739
:104A900077000146A9FB0D83FD1833771701F5B5A3
:104AA00013074800014613583700B287D5BD1A08CE
:104AB00013579800D9BD1A0725839377F60FF1B5E0
:104AC000C1676375F5029337051093C717008E070A
:104AD000130700021D8F3355F500971700009387C9
:104AE000276AAA9788233305A7408280B707000169
:104AF000637FF500C1473355F50097170000938792
:104B00002768AA97882341473305A7408280E14759
:104B10003355F5009717000093878766AA97882377
:104B200021473305A74082805D7122D406D62A84AE
:104B30002EDA32DC36DEBAC0BEC2C2C4C6C603A597
:104B4000018111C51C4D81E72AC6452532450C451A
:104B50005418228636CEEF00D039B250225461610B
:104B60008280011126CA06CE22CC4AC84EC652C443
:104B7000AA8419E11C4502901C4D2E89BDE3B52580
:104B80009C4C8044ADC39727000093872780631F08
:104B9000F404C0407C50858B81EB5E2493F70720A2
:104BA00081E7284CEF00E07E5E24A18B99C31C486E
:104BB000DDE3A2852685592459CDFD547C50858B93
:104BC00081EB5E2493F7072081E7284CEF00807C7F
:104BD000F24062444249B249224A2685D2440561E4
:104BE000828000454DB72685092571BF97170000C3
:104BF0009387C7776314F400804469BF9717000058
:104C00009387C774E318F4F8C04469B71CC4050956
:104C100063C807021C401387170018C08CA31C44EC
:104C200083450900FD17FDF11CC463D907022286E4
:104C3000A9452685B122FD57E301F5F8A944BDBF7A
:104C4000184C63C4E700E39745FD228626850D2AAC
:104C5000E31735FD9DB7FD59294AD1B71C4013878D
:104C6000170018C0294798A3D1BFAA8503A50181C1
:104C7000CDBD411126C283A401819C5C22C406C61D
:104C80002A84B9E76145EF00C07F88DC09ED9716FB
:104C900000009386E65E0146930520041715000088
:104CA0001305855F5924B737CDAB9387E7301CC117
:104CB000B7176DE6938747235CC1B7E70500938775
:104CC000C7EE1CC5AD475EA50547814718C95CC93D
:104CD0009C5CB240924480CB224423AA070041014D
:104CE0008280411122C403A401811C5C06C6B9E77D
:104CF0006145EF00007908DC09ED97160000938606
:104D0000265801469305E004171500001305C55801
:104D1000292CB737CDAB9387E7301CC1B7176DE6A9
:104D2000938747235CC1B7E705009387C7EE1CC58F
:104D3000AD475EA50547814718C95CC90C5CB786BD
:104D4000954C37F651589849DC499386D6F21306AC
:104D5000D6423306C702B2402244B387D702330596
:104D6000D702B2973337D702BA97130715003335F6
:104D7000A7003E95C8C998C90605058141018280F2
:104D8000011122CC26CA4AC806CE4EC6AA842E8954
:104D9000328401C51C4D91E3892997170000938740
:104DA000E75E6317F402C0401C4C1CC45E24A18B58
:104DB00099C31C4895EFA2852685492015C97D59C0
:104DC000F2406244D244B2494A8542490561828038
:104DD00097170000938787596314F4008044E9B75C
:104DE0009717000093878756E310F4FCC0446DBF0B
:104DF0001C4808409379F90F1379F90F1D8D5C4811
:104E00006346F500A2852685712455F91C440505E5
:104E1000FD171CC41C401387170018C023803701DE
:104E20005C486388A7005E24858BD9DBA947E3191A
:104E3000F9F8A2852685B92C41D551B7411122C474
:104E400026C24AC006C683A401812A892E8489C449
:104E50009C4C99E32685512E9717000093870753A2
:104E60006313F402C0408317C40013F7870025E7DB
:104E700013F707010DEB25472320E90093E707040B
:104E80005EA47D5571A0971700009387274E631489
:104E9000F4008044C9BF971700009387274BE314A1
:104EA000F4FCC044C9B7918B9DC34C5889C9930782
:104EB00044046384F5004A85C92B232A04025E2436
:104EC0002322040093F7B7FD5EA41C481CC05E2497
:104ED00093E787005EA41C4899EB5E24130700202B
:104EE00093F707286385E700A2854A851123831776
:104EF000C40013F717001DC35848232404003307C8
:104F0000E04018CC1848014501E713F707083DF7C2
:104F1000B2402244924402494101828013F72700A3
:104F2000814611E3544814C4F1BF411183A70181A4
:104F3000328806C6AA882E87C8473686971700008B
:104F40009387C73C63170800971700009387C70F24
:104F50003E88C686971500009385453C6526EF0080
:104F600030358397C500011122CC26CA06CE4AC827
:104F70004EC613F78700AA842E8479E3D84163458F
:104F8000E000B8416356E008585459C3B18303A9FF
:104F90000400858B23A004000C50A9CB70485E242C
:104FA000918B99C75C401D8E5C5899C33C401D8E07
:104FB0005C540C50814626858297FD57630CF5049E
:104FC0001C480567232204001CC05E24F98F91C38E
:104FD00068C84C5823A0240185CD930744046384FA
:104FE000F50026855D21232A04021DA00146854681
:104FF00026850297FD572A86E313F5FA9C40C5D310
:1050000075476385E70059476395E70623A02401A8
:105010000145B5A098408317C40001CFF54663054C
:10502000D700D9466319D7041C48232204001CC0AA
:105030004DB71848B1832322040018C0858B41BFA7
:1050400083A90501E38609FC03A905008D8B23A034
:10505000350133093941014791E3D84918C4E3596F
:1050600020FB1C540C50CA864E8626858297634FBF
:10507000A0008317C40093E707045EA47D55F240A7
:105080006244D2444249B24905618280AA993309F7
:10509000A940F1B79C49411106C622C426C281EB42
:1050A0008144B24022442685924441018280AA84F0
:1050B0002E8401C51C4D91E30D2A9717000093879C
:1050C000E72C631DF402C0408317C400F1DB785065
:1050D000058B11E793F7072099E3284C5D2C268573
:1050E000A285EFF01FE87C50AA84858BDDFB5E244F
:1050F00093F70720DDF7284C712C65B79717000050
:105100009387C7266314F40080447DBF971700007F
:105110009387C723E31AF4FAC0447DB7411122C430
:1051200006C62A844EA572A5232005002322050069
:10513000232405002322050623280500232A050031
:10514000232C0500214681451305C505EFB04F8589
:10515000971700009387A7885CD097170000938764
:10516000C78A1CD4971700009387A78E5CD4971723
:10517000000093870791B24000D01CD8224441011F
:10518000828097050000938525F179AA411126C2F6
:10519000930780069384F5FFB384F4024AC02E89F6
:1051A00022C406C693854407D12E2A8401CD23202C
:1051B000050023222501310508C413868406814594
:1051C000EFA01FFEB24022852244924402494101D1
:1051D00082801385418975AA1385418965AA138543
:1051E000818945AA1385818975A2411122C406C609
:1051F0002A84F5371C4C89C72244B2404101DDB7EF
:1052000097070000938727F81CD42324040423263F
:1052100004042328040483A74187639487008547F7
:105220001CCC2285152848C022853D2008C4228533
:10523000252048C4484001469145EFF03FEE084420
:105240000546A545EFF09FED48440946C945EFF0F6
:10525000FFEC85471CCC4DB7411126C24AC006C69B
:1052600022C42A89BD3783A441879C4C99E32685B3
:10527000AD3F938484048044DC40FD1763D607006F
:105280009C40A5C78440C5BF0317C40021EFC17768
:1052900085075CC41305840523220406D528EFF096
:1052A000BFF321462320040023240400232204000A
:1052B00023280400232A0400232C0400814513051D
:1052C000C405EFA0FFED232A0402232C04022324AB
:1052D000040423260404B240228522449244024955
:1052E000410182801304840649BF91454A85EFF04D
:1052F000FFE988C02A8459F5EFF01FEEB14723205B
:10530000F900D1BF397132D436D62E863410AA8531
:1053100003A5018106CE3AD83EDA42DC46DE36C627
:10532000C92EF24021618280797122D44AD04ECEBA
:1053300052CC5AC85EC606D626D256CA2A892E8AAA
:10534000130485048149054BFD5B0444832A440012
:10535000FD1A63D00A0200406DF8B25022549254F4
:105360000259624AD24A424BB24B4E85F2494561DC
:105370008280DE24637BFB008397E40063877701F0
:10538000A6854A85029AB3E9A90093848406C9B721
:105390008280828082805971A2D42E848395E50018
:1053A000A6D2CAD086D6B284368963D205025E24DC
:1053B00093F7070895EB13070040B65026542320B7
:1053C000F90098C006599654014565618280300005
:1053D000EF002071E34D05FC3247BD67F98F797707
:1053E000BA9793B71700C1BF814713070004F1B7FD
:1053F000DE25797122D406D626D24AD04ECE898BAC
:105400002E8491CF930774041CC01CC885475CC8C8
:10541000B250225492540259F2494561828074007C
:105420003000AA848D3FA2492A892685CE85B922DB
:1054300019E98317C40013F7072079FBF19B93E761
:1054400027005EA4C1B7970700009387C7D39CD4F9
:105450005E2408C008C893E707085EA4B247232A61
:10546000340199CB8315E4002685452511C55E24BA
:10547000F19B93E717005EA45E2433E527014AA45D
:1054800041BFAA8503A50181D5A8D1CD83A7C5FFBA
:10549000011122CC06CE1384C5FF63D307003E94CE
:1054A0002AC6C12D1387018A1C43324581EB232272
:1054B000040000C36244F2400561C1A5637DF400AD
:1054C0001040B306C4006396D7009443DC43B29601
:1054D00014C05CC0F9BF3E87DC4399C3E37DF4FE92
:1054E00014433306D700631F86001040B29614C3DE
:1054F0003306D700E390C7FC9043DC43B29614C355
:105500005CC34DBF6375C400B1471CC165B7104093
:10551000B306C4006396D7009443DC43B29614C02C
:105520005CC040C341BF828041114AC01389C18918
:105530008327090022C426C206C6AA842E8489E7CE
:10554000814585292320A900A28526859D217D5995
:10555000631A25017D54B2402285224492440249B7
:1055600041018280130435007198E30685FEB3057E
:10557000A44026853D29E31025FFE9BF011126CA75
:1055800093843500F1984AC806CE22CC4EC6A104B9
:10559000B1472A8963F5F406B14463E4B4064A8549
:1055A000C92B9389018A83A709003E8435E4A68527
:1055B0004A85EFF07FF7FD572A846315F50C03A4A5
:1055C0000900A287DDE78329040081454A85A29965
:1055D000CD266393A90A1C408D049D8CF198A104EB
:1055E000B14763F3F400B144A6854A85EFF0DFF3D9
:1055F000FD576303F5081C40A6971CC03DA8E3DED9
:1056000004F8B1472320F9000145F2406244D24436
:105610004249B249056182801440858E63C8060400
:105620002D47637DD70204C0330794006396870239
:1056300023A0E9005C4014C35CC34A853D2B1305DD
:10564000B4009307440061993307F540E30FF5FA7E
:105650003A94898F1CC055BFD8C3E9BF58406395A1
:10566000870023A0E900D1BFD8C3C1BFA2874040B3
:1056700035BF3E84DC43B9B7B1472320F9004A85E2
:10568000ED2959B704C155BF1C46FD171CC663DA86
:105690000700184E63C5E700A9476394F5006FF053
:1056A0002FEE1C422E851387170018C28CA3828010
:1056B000011122CC26CA4AC84EC652C406CE2A8937
:1056C000AE893284B304D6007D5A63149400014538
:1056D00009A80C204E864A85EFF01FFB0504E3164F
:1056E00045FFF2406244D2444249B249224A056130
:1056F0008280357122CD26CB4AC94EC706CF52C50E
:1057000056C35AC1DEDEE2DCE6DAAA892E8432898B
:10571000B68409C51C4D99E3EFF03FAD9717000023
:105720009387C7C66319F40403A449007C50858B92
:1057300081EB5E2493F7072081E7284CEFF07FC5CB
:105740005E24A18B99C31C48ADE3A2854E85EFF082
:10575000EFEE21CD7C50858BA9C37D55FA406A447C
:10576000DA444A49BA492A4A9A4A0A4BF65B665CC5
:10577000D65C0D61828097170000938727BF631561
:10578000F40003A489005DB797170000938707BC56
:10579000E31EF4F803A4C90051BF5E2493F7072069
:1057A000CDFF284CEFF01FBF4DBF93070002A304AD
:1057B000F1029307000302D22305F10226C6930BE0
:1057C0005002971A0000938A6ABE054C294BCA847E
:1057D0009C2099C3639A7709B38C2441638E24017A
:1057E000E6864A86A2854E85EFF09FECFD5763075B
:1057F000F5189257E6973ED29C2063810718FD5713
:105800001389140002C802CE3ECA02CCA3090104C7
:1058100082D483450900154656858126C2479304E4
:10582000190029E513F7070109C713070002A309A7
:10583000E10413F7870009C71307B002A309E104C5
:10584000834609001307A002638AE602F247CA846E
:1058500081462546982093851400130707FD63733E
:10586000E6068DC63ECE1DA085049DB73305554185
:105870003315AC00C98F3EC8268961BF32479306F5
:105880004700184336C6634807023ACE982093076C
:10589000E002631CF70498309307A002631AF70232
:1058A000B2478904138747009C433AC663D3070075
:1058B000FD573ECA1DA83307E04093E727003ACEC4
:1058C0003EC8E9B7B3876703AE848546BA9759B730
:1058D000850402CA81468147254698209385140095
:1058E000130707FD6372E606E9F68C200D461715CF
:1058F0000000130525AC952411CD97170000938760
:1059000067AB1D8DC247130700043317A700D98F5B
:1059100085043EC88C201946171500001305C5A93B
:10592000138914002304B1020D2C35C9930700001C
:1059300095E74247B2471377071009CF91073EC654
:105940009257D2973ED261B5B3876703AE8485463E
:10595000BA9761B79D07E19BA107D5B77800970675
:105960000000938626D522860C084E8597000000FD
:10597000E7000000FD572A8AE314F5FC7C50858B74
:1059800081EB5E2493F7072081E7284CEFF09FA07E
:105990005E2493F70704E39207DC1255C1B3780045
:1059A00097060000938606D122860C084E85D524E2
:1059B000D1B7411122C42A842E8523A2018A06C6AA
:1059C000EFB03F82FD576316F50083A7418A91C36C
:1059D0001CC0B240224441018280411122C42E8465
:1059E0008395E50006C62523634905007C48AA97F0
:1059F0007CC8B2402244410182805E247D777D17BD
:105A0000F98F5EA4FDB7DE25011122CC26CA4AC853
:105A10004EC606CE93F70710AA842E843289B68923
:105A200091C78395E5008946014619225E247D775A
:105A30007D17F98F8315E4005EA46244F240CE86A0
:105A40004A86B24942492685D244056125A84111BA
:105A500022C42E848395E50006C6D9287D575E248E
:105A6000631AE5007D777D17F98F5EA4B24022446A
:105A7000410182800567D98F5EA468C8C5BF839540
:105A8000E5002DA8411122C42A842E85B2853686D0
:105A900023A2018A06C6EFB02FF1FD576316F50069
:105AA00083A7418A91C31CC0B24022444101828035
:105AB0004111194506C6CD2105459D23411122C43A
:105AC0002A842E8523A2018A06C60923FD57631660
:105AD000F50083A7418A91C31CC0B2402244410112
