:100000006F00C02113000000130000001300000067
:100010001300000013000000130000001300000094
:100020001300000013000000130000001300000084
:08003000130000007300100032
:1000380000000000000000006213000066130000CA
:1000480000000000B40100000000000000000000F3
:10005800B6010000B8010000000000000000000028
:100068001E12000000000000BC010000000000009B
:10007800BE010000C0010000C2010000C401000070
:10008800C6010000C8010000CA010000CC01000040
:1000980050130000D0010000D2010000D40100007C
:1000A800D6010000D8010000DA010000DC010000E0
:1000B800DE010000E0010000E2010000E4010000B0
:1000C800E6010000E8010000EA010000EC01000080
:1000D800EE010000F0010000F2010000F401000050
:1000E800FC1200002C1300003E130000FC0100006D
:1000F800FE010000000200000202000004020000ED
:1001080006020000080200000A0200000C020000BB
:100118000E0200001002000012020000140200008B
:1001280016020000180200001A0200000000000079
:080138000000000000000000BF
:10014000397101436EC619A0397141536AC866CA34
:1001500062CC5ECE19A0397101535AD056D252D416
:100160004ED64AD826DA22DC06DE3301614082828E
:1001700041114AC026C222C406C68282B24D410144
:10018000024D924C224CB24B4101024B924A224A00
:10019000B2494101024992442244B2404101828065
:1001A0002A8311C62300B3007D16050365FE8280F5
:1001B00001A001A001A001A001A001A001A001A037
:1001C00001A001A001A001A001A001A001A001A027
:1001D00001A001A001A001A001A001A001A001A017
:1001E00001A001A001A001A001A001A001A001A007
:1001F00001A001A001A001A001A001A001A001A0F7
:1002000001A001A001A001A001A001A001A001A0E6
:1002100001A001A001A001A001A001A09701002060
:1002200093814165175100201301C1DD176500005E
:10023000130545F0970500209385C5DC138641869C
:1002400063FAC5008322050023A05500110591051E
:10025000E3EAC5FE13858186938581906377B500B7
:10026000232005001105E36DB5FEFD42739002BC2D
:100270009D42739042809302800873A002309702DF
:1002800000009382A2DB93E2320073905230EF10B1
:10029000201B971200009382E211739012347300B6
:1002A0002030EFF2FFECB727014093870740631B34
:1002B000F500854513050020BD2581451305002067
:1002C0009D25C9BDB737014093870780E31BF5FE25
:1002D000854513050040812D814513050040CDB7AC
:1002E0005841B707F1E09387F7EF944D7D8F9C411C
:1002F000D58FD44DD58FD441A206D58FD98F5CC16F
:100300001845B7F7F1FF9387D77FD4457D8F9C4978
:10031000D58F94458606D58FD98F1CC55855B707FC
:1003200010FFFD177D8FDC29FD1793F7F70FD2071C
:10033000D98F5CD582801C4589C593E717001CC501
:100340008280F99BEDBF1C4589C593E707101CC54A
:10035000828093F7F7EFE5BF1C4593E787001CC544
:10036000828008450D81058982801C4593E74700FE
:100370001CC5828008450981058982801C4591C57C
:1003800037075000D98F1CC582803707B0FF7D1713
:10039000F98FD5BFA54763F7B7048D47138765FF6E
:1003A0003307F7020328C5009D47B397E70093C7BB
:1003B000F7FFB3F70701B396E600DD8E54C5994702
:1003C00063E3C70495477D163306F6025859FD4787
:1003D000B397C70093C7F7FFF98F3396C5005D8EBB
:1003E00050D982800D473387E502032805019D47D8
:1003F000B397E70093C7F7FFB3F70701B396E6009B
:10040000DD8E14C96DBFB14763E2C702954765161B
:100410003306F6021859FD47B397C70093C7F7FF95
:10042000F98F3396C5005D8E10D9828095474D16A1
:100430003306F6025855FD47B397C70093C7F7FF39
:10044000F98FB395C500DD8D4CD582801C41416785
:100450007917F98F1CC123200500232205002324CE
:100460000500B7070240232605001387870063169F
:10047000E500D8431367F70001A81387C701631786
:10048000E500D8431367070FD8C3B1A81387070344
:100490006318E500D8438566938606F0558FEDB75F
:1004A000138747046315E500D843BD66C5BF1387AE
:1004B00087056316E500D843B7060F00C5B7138755
:1004C000C7066316E500D843B706F000C1BF13871F
:1004D00007086316E500D843B706000FC1B71387B6
:1004E0004709E308E5F882801841E177BD07945198
:1004F0007D8F9C45D58F9449D58FD449D58F944D08
:10050000D58FD44DD58FD451D58F9455D58FD98FC4
:100510001CC1DC455CC19C411CC5DC415CC58280C2
:100520001C4189C593E717001CC182804167791778
:10053000F98FDDBF58410C415045B7070140938703
:1005400007403E9793C6F5FF39C29043758E90C31E
:10055000D043F18ED4C31443CD8E14C318419047B9
:100560009346F7FF758E90C7D047F18ED4C71445D8
:1005700041466399C6009447D98E94C7D447558F96
:10058000D8C78280B6979443558F98C382801C4306
:10059000F58F1CC38280B707014093870740C8CB03
:1005A00082809C4513F7070113F8F70001C7D84173
:1005B0003368E80037270240145B3707000F758F58
:1005C00045EB85462384D186371701406315E50046
:1005D0009A2135839AA18E2113F7F50F31C3184163
:1005E0008146054E930E80023D4F930F80042143B8
:1005F0003316DE00B3F8C500631016036392D70903
:1006000050C913962600B318CF0093C8F8FF33F7EC
:10061000E8003316C800518F8506E39B66FC18C1BD
:100620001307F00F6375B70454410146054E930E4E
:100630008002130F80042143130786003317EE0056
:10064000B3F8E500631117036390D70558C99318F1
:1006500026003D47331717011347F7FFF98EB318EC
:100660001801B3E6D8000506E31866FC54C1828081
:1006700037170140E311E5F603C7818629DF89BFFB
:10068000E391F7F910C9B5BFE393E7FD18C9C1B706
:10069000B706300013560501131705013378D5004E
:1006A0003D8A4183B707014063510502DC4F631760
:1006B000D80641068D46B396C60093C6F6FFF58F61
:1006C000F1E9370701405CCF8280D443B72702406D
:1006D00083A80703B707000FB3F7170189EB93D778
:1006E0001600F978CE06B3F71701CD82DD8EB70775
:1006F00030006314F806370600F17D163708014014
:10070000B3F7C60083264800F18E2322D800BDCD62
:10071000558112053315A700C98F8DA8B7061000A3
:10072000E98E85C28D46B396C60093C6F6FFF58F57
:10073000C9D955811375F53F12053315A700C98F27
:1007400049B755811375F53F12053317A700934636
:10075000F7FFF58FBDD5D98FADB7B7071000E98F7B
:1007600099CB8D47B397C70093C7F7FFF58FB706AF
:10077000000FD58F69BF558112053315A700934728
:10078000F5FFF58F3707000FD98FD9F537070140EF
:100790005CC3828055811375F53F12053317A7009E
:1007A0005DBF93F635003707014093F5C50F2E97CF
:1007B00010478A06BD47B397D70093C7F7FFF18F5D
:1007C0001CC71C473315D5005D8D08C78280B7371D
:1007D000004088C38280B7370040C8C38280B737E3
:1007E000004088C78280AD67373700409387A7AA4B
:1007F0001CC38280B567373700409387C7CC1CC3C2
:100800008280B7160240DC4251777D17F98FC98F7D
:10081000DCC28280371702405C43A146B18B6392F1
:10082000D70A5C435843C166C983BD8B758F89075E
:10083000C5466393D700C94701EF374702400327F6
:100840000780418B09CF37177A001307072021A8AB
:10085000371702405843B7060200758F6DD7371718
:100860003D0013070790B387E7021CC1371602400B
:10087000544237070020130707009182BD8ABA96B9
:100880009422B3D7D7005CC15442A1829D8ABA9604
:100890009422B3D6D70014C55442AD829D8A3697B0
:1008A0001823B706002093860607B3D7E7005CC578
:1008B000584239830D8B36971823B3D7E7021CC9EA
:1008C0008280B7177A009387072045B799C53717F5
:1008D00002405C4BC98F5CCB8280B7170240D84B7B
:1008E0001345F5FF798DC8CB828099C53717024033
:1008F0001C4FC98F1CCF8280B7170240984F1345F9
:10090000F5FF798D88CF828099C5371702405C4FFB
:10091000C98F5CCF8280B7170240D84F1345F5FFCF
:10092000798DC8CF828099C5371702405C47C98F3F
:100930005CC78280B7170240D8471345F5FF798D11
:10094000C8C7828099C5371702401C4BC98F1CCB82
:100950008280B7170240984B1345F5FF798D88CBFD
:1009600082801E319206558EC207C183F99BC20751
:10097000C1831EB11A2D1E31B73601404207418393
:100980001377C7F0518FC2074207938606C0C18311
:1009900041836304D502B70600406300D502938605
:1009A0000640630CD500B716004013860680630628
:1009B000C500938606C06319D500F59BDD8D93E5D0
:1009C00015001AAD0EB18280D59BCDBF1E31856852
:1009D0009388F8CFC207C183BD9BC207C1831EB1F4
:1009E0001A2DB2061E312206D18E33771701558F8C
:1009F00013984500B7360140C20742084207938664
:100A000006C0C1831358080141836304D502B706A9
:100A100000406300D50293860640630CD500B716EC
:100A20000040138606806306C500938606C0631BDC
:100A3000D50093F7F7FD3368F800936508011AAD08
:100A40000EB1828093F7F7F5DD8D93E50501C5BF03
:100A5000EFF20FF2B7370140938707C0631DF5002F
:100A600005648545130504807D3D8145130504809B
:100A70005D3D6FF02FF2B70700406319F500854523
:100A80000545C93581450545753DE5B7938707405F
:100A90006318F50085450945753581450945EDB76C
:100AA000B7170040138707806318E5008545114597
:100AB000513D81451145C9BF938707C0E31BF5FA36
:100AC000854521454135814521457DBF1E2137376B
:100AD0000140130707C0C207C1836304E50237075B
:100AE00000406300E50213070740630CE500371779
:100AF0000040930607806306D500130707C06316FE
:100B0000E500BA2193F7F7F8D98FFA2193F7F7CFD9
:100B1000C207C183D98F1EA1DE215EB59E211EB5FD
:100B2000B7370140938707C06314F5009C251EB9B1
:100B300085475EA982801E31922103D82500C20715
:100B4000C183F99BC207C1831EB11E3156211A2DE4
:100B5000C207C183420741831377C7F8518F92259B
:100B6000F59BC20633660601D18F37360140130666
:100B700006C0C1826310C502B225DD9B03D8E50023
:100B8000D18FD221ED9B93F6F6CFD18FD22533664C
:100B90000601D18E56A11AADFA215AB91EB1828032
:100BA0001E31E5769386F6CFC207C183BD9BC2078F
:100BB000C1831EB11E3152211A2D03D88500C207F0
:100BC000758F9621C18393F7F7FDA206558FB62145
:100BD00042064207B3E606019206D58FB7360140BA
:100BE000C207938606C041824183C183631ED5023A
:100BF000B62593F7F7F703D8C5009206D58FD6210F
:100C0000C207C183920693F7F7FBD58FFD769386D3
:100C1000F63FF18EF225C207C183336606010A064C
:100C2000D18E13960601418252A11AADFA211ABD46
:100C30001EB182801E31962103D88500C207C18370
:100C400093F7F7EFC207C1831EB11E3152215A2D0F
:100C5000C207C183420741831377C7F8558FB62176
:100C600093F7F7DF4206B3E60601A206D58FB73643
:100C70000140C207938606C04182C183631FD5022B
:100C8000FD769386F67FF58FB62503D8C500A206BC
:100C9000D58FD621C207C183A20693F7F7BFD58FA0
:100CA000F576FD16F18EF225C207C1833366060183
:100CB0001206D18E13960601418252A15AADFA2135
:100CC0005ABD1EB182801E317D777D17F98F1EB10E
:100CD0001A315E21562D65761306F6CFF18E9221DC
:100CE00003D88500C2072206D18E79767D16718FD2
:100CF000B221C206C183336606013206518F3736F0
:100D000001404207130606C0C1824183631AC50031
:100D100071767D16F18FD2251A06D18FC207C18355
:100D20005EA1FE2156AD2310F5041AB18280BA21CE
:100D30009E21D98FDA21D98FFA21D98F9A25D98F7F
:100D4000BA25D98FDA25D98F2312F5048280FD5771
:100D50005EA12310050023130500231105002304C1
:100D600005008280231005002311050023120500D1
:100D70002313050023140500231505002316050081
:100D800023170500828085472310050023110500E5
:100D90005EA12313050023140500828023100500A3
:100DA0002311050023120500231305002314050059
:100DB000231505002316050082801E2189C593E7AF
:100DC00017001EA18280C207C183F99BC207C1839D
:100DD000CDBF8357450491C52167D98F2312F504F0
:100DE0008280C607C583DDBF5E2501C6CD8F5EA5A7
:100DF000828093C5F5FFED8FDDBF4EA982801E2551
:100E0000C207C18393F7F7F8CD8F1EA582801E21FC
:100E100089C593E707081EA18280C207C18393F7A3
:100E2000F7F7C207C183C5BF1E2DC207C183DD9B73
:100E3000CD8F1EAD82801E2D7D771307F77FF98F32
:100E4000A205CD8FC207C1831EAD82805E2DC20771
:100E5000C183DD9BCD8F5EAD82801E2DC207C18315
:100E6000ED9BCD8F1EAD82801E2DA205C207C183D2
:100E700093F7F7BFCD8FC207C1831EAD82805E2D71
:100E8000C207C183ED9BCD8F5EAD82801E310547C9
:100E90003317B7001347F7FFF98F3316B600D18F1A
:100EA000C207C1831EB182801E3111473317B700BC
:100EB0001347F7FFF98F3316B600D18FC207C183EE
:100EC0001EB182801E25C207C183E19BC207C18378
:100ED0001EA51E25CD8F1EA582801E25C207C1839B
:100EE00093F7F7F7C207C1831EA51E25CD8F1EA558
:100EF00082801E2DC207C183CD9BC207C1831EAD58
:100F00001E2DCD8F1EAD82801E2D7D771307F73FDE
:100F1000F98F1EAD1E2DA205CD8FC207C1831EAD58
:100F200082805E2DC207C183CD9BC207C1835EADA7
:100F30005E2DCD8F5EAD82805E2D7D771307F73FEE
:100F4000F98F5EAD5E2DA205CD8FC207C1835EAD68
:100F50008280EFF2EFA19A21BE21D22196252A8428
:100F6000AE8401EBBE85F53AEE20228559376FF04D
:100F70006FA291456318B700BE85893CEE2022859B
:100F80006137F5B72145EE206317A7081A3092069E
:100F900013988700420741831377F7EF4207418395
:100FA0001AB04A2C1A304208420541811375C5F027
:100FB000518D558DB736014042074205938606C0D4
:100FC00041831358080141816304D402B7060040ED
:100FD0006300D40293860640630CD400B716004029
:100FE000138606806306C400938606C0631DD40082
:100FF0001377F7DF3368E800136708104AAC1AB0BC
:1010000022850537ADB7FD769386F65F758F5D8FC8
:1010100013670710E5B71A307D757D15698F1AB013
:101020004A2C8568B2061A309388F8CF2206558E6E
:10103000337515011398C700518DB736014042072B
:1010400042084205938606C0418313580801418136
:101050006304D402B70600406300D40293860640BE
:10106000630CD400B7160040138606806306C400E4
:10107000938606C0631FD400F977FD177D8F336810
:10108000E8008567B367F8004AAC1EB022856D356D
:10109000F9BDA1669386F6DF758FD98F0567D98F65
:1010A000E5B74A3982800A3D82801E294A25ED8FA4
:1010B0004205418189C76D8D3335A000828001458D
:1010C000828093C5F5FFC205C1810EA98280EFF22F
:1010D0002F8A1629F577FD17FD8EFE21DA250111DD
:1010E000D58F1EA95625FD779387379FFD8EDE216C
:1010F0002A84AE84D58F9625D58FB625D58F5EA54B
:101100005E29C207C18393F7F7CFD98F5EA9680024
:10111000EFF04FF0B7470140938707806318F4045E
:10112000E24756246547B387E702C206C186984066
:1011300063D006040607930640065224B3D7E7029D
:101140004206418633D7D702B3F7D702120763535B
:1011500006028E0793872703B3D7D7029D8BD98FBB
:10116000C207C1831EA405616FF0CF82D24755BF6D
:101170000A07D1B7920793872703B3D7D702BD8B4E
:10118000F9BF5E2589C50967D98F5EA58280797709
:101190007D17F98FDDBF93F5F51F4EA182800A21DF
:1011A0006D8D3335A0008280EFE2FFFA37490140B0
:1011B000AE89328481441309098063C58400228585
:1011C0006FE0BFFC930500044A85D13F65DDB3871E
:1011D0009900838507004A858504C205C181653F62
:1011E000E9BFB7060020AA8703A5460713878190A9
:1011F000AA9763EBE7003757002013070780636562
:10120000F70023AAF60682807D558280732510346C
:1012100082807325203482807325303482800111CE
:1012200022CE26CC4ACA4EC852C656C4EF10A06A77
:101230001384C18919C199471CA0D52EEF10900BBA
:1012400003D7E18693074006631CF706504CB74965
:101250000F009389092433D6C9029384018D9858CD
:10126000DC58034804008C401965130585D4239786
:101270000186EF30C05E14208D47639EF60683D74B
:10128000C186A546484C63F2F60633D5A902EF2085
:10129000F06E2E86AA851385018DEF00E06C03AAFF
:1012A000040383AA4403014681465285D685EF2074
:1012B0004006634705005285D685EF20705908C85F
:1012C000584C72442395E18683D7E186E244C249B3
:1012D00085072397F186B7F700E023A2070052495C
:1012E000324AA24A05617300203085072396F186B1
:1012F0009C401CC8F1B723960186DDBF89453705A0
:101300000040653319C5EF00904EB7070040755790
:101310009AABC14537050040493B19C5EF00D0588D
:10132000B70700403D579AAB73002030C122B70782
:1013300000402398074093870740730020308D2496
:10134000B7170040239807809387078073002030E9
:101350005124B7070140938707401147D8CB73004A
:1013600020307300203001111305400622CE26CC18
:10137000EF00101C1965130585D5EF306062513DF3
:101380002AC6593DAA845935B2452A8419651305E0
:10139000C5D6EF30C04C1965A6851305C5D7EF300B
:1013A000004C1965A285130585D8EF30404B01A08C
:1013B000EFE21FDC4111EF10407CEF00E0773715C2
:1013C0000E00EF107000EF100058EF10602DEF00CE
:1013D000F04F952DEF00A06E03A7C18183A88181F6
:1013E0003AC003A8418283A6818283A7018203A712
:1013F000C182814501461385018D012B13054006ED
:10140000EF003013EF005038EF00B0331305007DCC
:10141000EF108069C52B03A8418383A6818383A72E
:10142000018303A7C1831385018D02C081488145D3
:101430000146E1291384C189EFF0EFBA1C20EDBF0A
:10144000B71702409843B706FFF81367170098C311
:10145000D843758FD8C39843B706F7FEFD16758F2E
:1014600098C39843B706FCFFFD16758F98C3D84301
:10147000B70681FFFD16758FD8C337079F0098C741
:101480003747024013070780144393E6060114C34D
:10149000D8438966D8C3D843558FD8C3D843B70635
:1014A000C1FFFD1613670740D8C3D843758FD8C353
:1014B000D843B7063C00558FD8C39843B706000100
:1014C000558F98C3B70600029843758F75DFD843D0
:1014D000B7160240719BD8C3D84313672700D8C3FF
:1014E0002147DC42B18BE39EE7FE8280EFE2BFC67C
:1014F0001384C18918208D47631BF7060145EF004F
:10150000E06FEF00F0221C3003D561878607504C56
:10151000A297B623AAA39D47B387C70218502A975C
:10152000158F545018D08506BA9713DA370054D067
:10153000232E44011307200D637BD7029983044CAB
:101540001389C18963F2A704EF300008AA89528584
:10155000EF30401483A50185EF203049AA854E85E0
:10156000EF2010776352050299C0FD1404CC3707B1
:1015700000408357C740C207C183F99BC207C1839C
:101580002316F7406FE07FC093871400232CF900E7
:101590009307007DE3FD97FC91472300F900C1BF4D
:1015A0009387C18994230D47639AE600D4531307A8
:1015B000200D6370D702114798A38280371700402F
:1015C0008357C780C207C183F99BC207C183231613
:1015D000F7808280B717004083D647823146C20623
:1015E000C182239BD1869387C189D84F3356C702C6
:1015F00063F7C600D4539307200D63E9D702B717EA
:1016000000401183239207824207B70700402392CC
:10161000074241832396E7422398074003D7C740F8
:10162000136717002396E7406F00500F8280EFE2A8
:101630003FB49387C189982399471384C18963066E
:10164000F7001C4885E3230004001820994693778F
:10165000F70F63EEE60C19678A07130747D9BA97A5
:101660009C4382871C20F5F385471CA0F9BF03D556
:10167000C187B714004093840480EF30E0323737DD
:1016800001408357C7C0C207C183F99BC207C1830A
:101690002316F7C0370700408357C740C207C183EE
:1016A000F99BC207C1832316F740DE24C207C1831A
:1016B000F99BC207C183DEA4EF005006C630EF30AD
:1016C000A035930720033365F5029307007DC2041C
:1016D000C18029053305F502635B95041389C18731
:1016E00003552900EF20107B83A54185EF20F02FC3
:1016F000AA8503A58185EF20502FEF20F066930780
:1017000080076354F5001305800748C842054181EE
:10171000EF00B030B7170040239207827D210145CA
:10172000F129239A0186232E040089471CA06FE02B
:101730007FA6B717004003D74782B71701409387AA
:101740000780944783C721878982858A8607D58F3A
:10175000143093F7F70F42072389F18693F51600AB
:101760004183A9CDF9CB83D741871307007D6378E7
:10177000F70C9147239A0186232204021CA0B71478
:10178000004003D94482EF302029F9473365F50240
:101790009307007D42091359090193840480510580
:1017A0003305F502E35525F918208947E311F7F8C9
:1017B000239204020145992185478DBF9305F00FBF
:1017C000E393B7FA9307C00F2389F18637160040D9
:1017D00093971600239A018623120682A2970C5033
:1017E000B623BAA35C502E97158F544C85075CD056
:1017F0008D47B387D70218D013060680BA9789831E
:1018000061475CCCB3D7E7025A32E36FF7FE01457C
:10181000F526585093076004E3F3E7F6584CA967A0
:101820009387F7C3E3EDE7F48D4723220402239A5D
:1018300001861CA0EF00C06F99B78D4771B785076F
:10184000239AF186F9B7B717014093870780984725
:1018500003C61187118B6302E602239A0186A388CF
:10186000E18658509307100D63ECE7025848F5479E
:1018700063C4E702F9475CC825A003D741879306F4
:10188000007D63E6E6000507239AE186D9BF239A27
:10189000018691471CA0F1B793076027E3CDE7FCD1
:1018A00008485C48E305F5E863540500232A040072
:1018B0005C4863D4A7001385A70048C8420541814E
:1018C000EF00B015ADB503C70187CD4763E4E7006E
:1018D00095471CA013054006A12991BD83C7018728
:1018E0004D47E366F7E40397C180634607007D1721
:1018F0002396E1802DBD1307803E85072396E18066
:101900002388F186230004001DB5797122CC2A8436
:101910002E85B28526CA4AC84EC652C406CEBA899A
:101920003E89368AC28446D6EF2080723257C2572B
:1019300023244401232634012328240144C8F240EF
:1019400008C018CC5CCC23200402232204022324E8
:10195000040223280402232A04026244D244424996
:10196000B249224A45618280EFE2EFFE2A840841B3
:10197000B2842E89EF20A0794A86A686EF10F079EE
:101980002A890854AE84EF2080784A86A686EF1014
:10199000C029EF20E06B08D4EF206077104854484E
:1019A000832A0402EF10D022104454442A8AAE89BC
:1019B0004A85A685EF10D0212A86AE865285CE852F
:1019C000EF10A0262A8A5685AE89EF2040742A8619
:1019D000AE864A85A685EF105074104C544CEF101B
:1019E000301F2A86AE865285CE85EF10002408D897
:1019F0004CD8232254034A85A685EF20606508D081
:101A00006FE0AFF8B7F700E023A0070023A20700BC
:101A1000814694C70147D8C7370700208325870729
:101A200009671307077133D6E50281463D4790CB1E
:101A3000D4CB98C3B7E700E001572386E74005679A
:101A400023A0E7108280EFE2AFF2411185450945FE
:101A5000EFE09FEBFD577C84B707002083A7870743
:101A600037871E0013070748B3D7E7023704004043
:101A70004C00130504402313010023150100231615
:101A80000100FD177C82EFF06F841305044085454B
:101A9000EFF02FE30546130504408545EFF0CFB482
:101AA000B7E700E0A3860742096723A2E710854550
:101AB00013050440EFF06FB041016FE0AFEDEFE2CE
:101AC0002FEB411185451145EFE01FE4FD577C8464
:101AD000B707002083A7870737871E00130707482B
:101AE000B3D7E702371400404C00130504802313DA
:101AF00001002315010023160100FD177C82EFE091
:101B0000FFFC130504808545EFF0AFDB05461305A8
:101B100004808545EFF04FADB7E700E00947238724
:101B2000E742116723A2E710854513050480EFF013
:101B3000CFA841016FE00FE6B7E700E061472388D7
:101B4000E70405671307073513671700B8D31307B2
:101B5000D002A388E70405671307C732136717008D
:101B6000F8D3130790022389E7041307001F1367B4
:101B70001700B8D73147A389E70405671307E721A2
:101B800013671700F8D782801547AA87636EA702EC
:101B9000EFE20FDE19678A07130707DBBA979C434A
:101BA0002E85828745256FE0EFDEEF00C073E5BF2D
:101BB000EF00807DCDBFEF003007F5B7EF00D0100C
:101BC000DDB7EF00B01AC5B782809387C18905479A
:101BD00098A3056713070777BAA3B7167017DAA794
:101BE000256793860677130707CAD4C394C798D38B
:101BF000D8CF23A2070223AC07008280EFE24FD7A1
:101C00009387C1899C33AA851384C189850713F5FD
:101C1000F70F954763F3A700014508B0B5371C30AF
:101C200085E3B74702401307000723A2E780B70701
:101C300001409387074023A60700114798C715A0C6
:101C40000D476392E702B74702401307000723A23C
:101C5000E780B70701409387074023A40700114797
:101C6000D8C76FE02FD305476396E700B747024018
:101C70004147F1BF91466396D700B74702404147BD
:101C80006DB789466388D70095466398D700B747F4
:101C9000024075BFB747024049BF858BC9DB55BFBE
:101CA0003717014093070780D443370600301307E6
:101CB00007C0C19AD4C3D44393E63600D4C3930675
:101CC0000010D4CB94439206918294C39443D18E56
:101CD00094C39306000894CBD4437D761306F60F85
:101CE00093F6F6F0D4C3D44393E60603D4C3930625
:101CF0000020D4CB1443C19A14C3144393E6360096
:101D000014C3854614CBD443F18ED4C3D44393E695
:101D10000630D4C393060040D4CB1C4393F7F7F0AE
:101D20001CC31C4393E707031CC389471CCBF5A1C5
:101D300085BFEFE26FC12A84EF00900DB717014015
:101D4000138707805443938707C0370B0020C19A3D
:101D500054C354431306B0209309400693E6B600DB
:101D600054C39843419B98C398431367370098C363
:101D7000054798CB03258B0793076041B357F502BE
:101D800093D6070136878506B386C602935715009A
:101D9000B3D7D7029306400663E38600A289416A5F
:101DA0007D1AC20993D909019386F7FFB3F747015A
:101DB0000969930A0971130909F437340140C2060D
:101DC000130404C0C18256B41AB49305A00F856BE6
:101DD000B3873703B3D7570333552503C207C183EE
:101DE0005EB8231C0402231E0402EF00B048EF007B
:101DF0003002B717014093840780D840938707C00B
:101E00001306B0241377F7F0D8C0D8409305A00F7D
:101E10001367070BD8C098431377F7F098C398431C
:101E20001367070398C3094798CB03258B079307CC
:101E30006049B357F50293D6070136878506B38606
:101E4000C60293571500B3D7D7029386F7FFB3F7AF
:101E50004701B3873703C206C18256B41AB4231AA6
:101E60000402B3D7570333552503C207C1831EBCF1
:101E7000231E0402EF001040EF008079DC407D77E4
:101E80001307F70FF98FDCC0DC4013870BB0130684
:101E90003029D98FDCC09C40370700309305A00F54
:101EA000920791839CC09C40938B7BBBD98F9CC035
:101EB000930700089CC803258B0793076052B3570C
:101EC000F50293D6070136878506B386C602935777
:101ED0001500B3D7D7029386F7FFB3F74701B3874F
:101EE0003703C206C18256B41AB4231A0402231C53
:101EF0000402B3D7570333552503C207C1835EBC21
:101F0000EF0050372314040223167403231A04022B
:101F1000231C0402231E04026FE08FA6B7070140B2
:101F20009387074098436D9B98C31147D8CB828015
:101F3000B70701409387074098431367470098C34A
:101F40008280EFE2EFA241118945014502C002C241
:101F500002C402C6EFE0FF8491473EC0C1473EC4C1
:101F60000A8585473EC602C2EFE0CFDC1145EFE0AF
:101F70008FE2B7E700E0238C07403707000123A07A
:101F8000E71041016FE00FA1EFE28F9E411137147E
:101F90000140930700024C00130504807C82231348
:101FA000010023140100231501002316010023174B
:101FB0000100EFE00FDFF577938707C04C001305B2
:101FC00004C07C8202C6EFE0CFDDF1477C824C008A
:101FD00093078004130504803EC6EFE08FDCB7470B
:101FE0000240054723A2E78041016FE0AF9AEFE28C
:101FF0002F9837050040EFF0CF8A9384418C050578
:102000008AA037050040EFF00F8A9A20930615004A
:10201000C206C182B307D740BEA0B7470F0093875F
:102020000724B3C7E702D6A01306A0171387418C75
:10203000C207C183FEA0AD17C207C1836361F60664
:10204000930785C1C207C1831306E07C6369F60468
:102050009307F07C63F9D7029307803E1EA71E27E3
:102060000567130787BBB387E7029386C189902270
:102070001307803EB3D7E7020D476315E60223A896
:10208000F18C6FE02F91130595C1420541818D4779
:102090000AA73305F50293075009E3C2A7FC2314EE
:1020A000070075BF9CCAF1BF0567130787BB23A252
:1020B000E18C9387418C23A2070023940700938728
:1020C000C18923A8070023AA07008280EFE24F8A74
:1020D000397185450545EFE03F8385450545EFE0CE
:1020E000DF8037051800854513050510EFE04FDA4E
:1020F000A1673ED2371501408D474C103ED41305E1
:102100000580930780043ED602C602C8231A010048
:1021100002CC02CE23100102EFE0AFC82808EFE0A6
:102120001FC3B707002083A7870737470F00130790
:102130000724B3D7E70241642C0837050040231D6C
:10214000010023000102BD44FD17FC849307F4FF46
:102150003ECEEFE0BF976800EFE0FFC285476C001E
:10216000370500403EC8E48202C6EFE09FDE68000B
:10217000EFE07FC1B707020091073EC66C008947B8
:10218000370500403EC8E482EFE0BFDC9305000560
:1021900037050040EFE0BFC6914537050040EFE04E
:1021A0007FD29305000837050040EFE01FD3914729
:1021B000231AF102BC86130404060C18FD17370518
:1021C0000040231BF10222D802DC02DEEFE0BFAFA9
:1021D0000546894537050040EFE01FC10546C1456A
:1021E00037050040EFE05FC0894537050040EFE06C
:1021F0005FEDC14537050040EFE0BFECB7E700E019
:1022000023860742056723A2E7108545370500406E
:10221000EFE0BFBA21616FD0FFF78567938787BB77
:102220002A8763F3A7003E878566B7370140938608
:1022300076BB2396D7C2239AE7C2239CE7C2239E8C
:10224000E7C28280B717014093870780D843419B3C
:10225000D8C3D8431367B700D8C3944337070010D7
:102260007D17758F98C398433DC5B70600B0558F4D
:1022700098C3B7170140138707805443938707C05B
:102280007D7693F6F6F054C354431306F60F93E6A7
:10229000060354C39306002054CB9443C19A94C3BD
:1022A000944393E6360094C3854694CB5443F18E11
:1022B00054C3544393E6063054C39306004054CBB2
:1022C00098431377F7F098C398431367070398C3AD
:1022D0000947D8CB8280B7060030558F98C31307C3
:1022E0000008D8CB79B7B717014093870780D84348
:1022F000419BD8C3D8431367B700D8C3944337076B
:1023000000107D17758F98C398433DC5B70600B080
:10231000558F98C3B71701401387078054437D76C4
:102320001306F60FF18E54C35443938707C093E608
:10233000063054C39306004054CB944393F6F6F012
:1023400094C3944393E6060394C3894694CB5443C1
:1023500093F6F6F054C3544393E6060354C393062E
:10236000002054CB9843419B98C398431367370090
:1023700098C30547D8CB8280B7060030558F98C3E5
:1023800013070008D8CB79B7B71701401387078028
:102390005443938707C093F6F6F054C3544393E62F
:1023A000060B54C39843419B98C3984325C91367B0
:1023B000B70098C33717014093070780D4437D7651
:1023C0001306F60FF18ED4C3D443130707C093E668
:1023D0000630D4C393060040D4CB144393F6F6F0F2
:1023E00014C3144393E6060314C3894614CBD8439D
:1023F000B7060030419BD8C3D84313673700D8C312
:1024000013070010D8CB98431207118398C3984341
:10241000558F98C313070008D8CB82801367370005
:1024200098C30547D8CB79B7B71701401387078002
:102430005443938707C093F6F6F054C3544393E68E
:10244000060B54C39843419B98C3984325C913670F
:10245000B70098C33717014093070780D443370666
:102460000030C19AD4C3D44393E63600D4C3930654
:102470000010D4CB94439206918294C39443D18E9E
:1024800094C39306000894CBD4437D761306F60FCD
:10249000F18ED4C3D44393E60630D4C393060040F0
:1024A000D4CB930707C098431377F7F098C39843AA
:1024B0001367070398C30947D8CB82801367370097
:1024C00098C30547D8CB79B7B71701401387078062
:1024D00054437D761306F60FF18E54C354430566BC
:1024E000130606B0D18E54C3938707C09843137761
:1024F000F7F098C398432DC51367070B98C3371798
:10250000014093070780D44337060030C19AD4C3F3
:10251000D44393E63600D4C393060010D4CB94433F
:102520009206918294C39443D18E94C3930600087B
:1025300094CBD44393F6F6F0D4C3D44393E6060386
:10254000D4C393060020D4CB930707C09843419B84
:1025500098C398431367370098C30547D8CB828048
:102560001367070398C30947D8CB51BFB71701407A
:102570001387078054437D761306F60FF18E54C3FC
:1025800054430566130606B0D18E54C3938707C023
:1025900098431377F7F098C398432DC51367070B3B
:1025A00098C33717014093070780D443130707C028
:1025B00093F6F6F0D4C3D44393E60603D4C393064C
:1025C0000020D4CB1443C19A14C3144393E63600BD
:1025D00014C3854614CBD843B7060030419BD8C3FB
:1025E000D84313673700D8C313070010D8CB9843DC
:1025F0001207118398C39843558F98C31307000897
:10260000D8CB82801367070398C30947D8CB51BF43
:102610003717014093070780D4433706003013076C
:1026200007C0C19AD4C3D44393E63600D4C39306FB
:102630000010D4CB94439206918294C39443D18EDC
:1026400094C393060008D4CBD4437D761306F60FCB
:1026500093F6F6F0D4C3D44393E60603D4C39306AB
:102660000020D4CB1443C19A14C3144393E636001C
:1026700014C3854654CBD443F18ED4C3D44393E6DC
:102680000630D4C393060040D4CB1C4393F7F7F035
:102690001CC31C4393E707031CC389475CCB8280A0
:1026A000EFD27FAB397185453545EFE00FA48569E1
:1026B000138509808545EFE04FA337051600854552
:1026C00013050504EFD0DFFC371401408D44614948
:1026D000930700084C08130504803ECA26CC4ACE56
:1026E000EFD03FEC85474C08130504C0FC824ACE6E
:1026F00026CCEFD01FEB89474C08130504C0FC82A1
:102700004ACE26CCEFD0FFE9930700104C08130502
:102710000480FC824ACE26CCEFD0BFE8930700208D
:102720004C0813050480FC824ACE26CCEFD07FE70C
:10273000930700404C0813050480FC8237340140A5
:102740004ACE26CCEFD0FFE5130504C002D802DA4A
:1027500002DC02DE02C402C62318010002D002D24B
:1027600002D423160102EFE0AFAE2800EFE02FDE27
:102770002C00130504C0938979BB4EC602C42308FC
:102780000100EFE0AFB40818EFE0CFDD93070006DB
:102790000C18130504C03ED802DA02DC02DEEFE0BA
:1027A0008FB90C18130504C0231B0102EFE04FBFC3
:1027B0000C18130504C0231B0102EFE0AFC70C186F
:1027C000130504C0231B0102EFE0EFCF130504C083
:1027D000A145EFE06FE5130504C0A145EFE0AFE5CB
:1027E000130504C0A145EFE06FE6130504C0814561
:1027F000EFE0AFE6130504C08145EFE0EFE6814569
:10280000130504C0EFE0AFE70810EFE02FD9B707DA
:102810001E003ED20C10B7070020130504C03ED4A2
:1028200002D023160102EFE08FD0130504C0014649
:1028300093050008EFE04FDB130504C00146854512
:10284000EFE08FDA130504C0014693050004EFE0C2
:10285000AFD9130504C0014693050002EFE0CFD8BD
:10286000130504C005468145EFE04FE2130504C09F
:1028700005469145EFE08FE1130504C00546A145EB
:10288000EFE0CFE0130504C011468145EFE0CFE152
:10289000130504C011469145EFE00FE11146130501
:1028A00004C0A145EFE04FE0130504C08545EFE00B
:1028B000CFD0130504C08545EFE0AFD1130504C0A8
:1028C0008545EFE0CFD48545130504C0EFE0EFD296
:1028D00021616FD09F8BEFD2BF8903D5C18713844D
:1028E000C187EF10305B83A5C185EF101010EF108A
:1028F000306603A6018483A64184EF00702D83A671
:10290000C18403A68184EF00B02CEF10C07A420589
:1029100041818D672AA09387379063E3A70203D58F
:10292000818709671307177193071500C2073335AD
:10293000E500C18313451500239CF1866FD09F8568
:1029400081470145D5BFEFD2BF821D71130600023A
:1029500081454808EFD0DF848545114502C402C691
:1029600002C8EFD09FF8854513050020EFD0FFF790
:102970003165EFD01FE93715014089472C00130559
:102980000580372401407C8402C8EFD09FC1130525
:102990000440EFD01F91854737070E004C08130500
:1029A00004403ECC3ECE3AD02304F10202CA02D209
:1029B000EFD01F93854513050440EFD0DF98854580
:1029C00013050440EFD03F9713050440EFD0DF9884
:1029D000930404402685EFD0DF986DFD1305044075
:1029E00037240140EFD07F98930404402685EFD030
:1029F0007F986DFD1306C00281454818EFD04FFA4D
:102A000085450545EFD09FECB7040240138584004F
:102A1000EFD0DFA39307C4443EDA9387C1873EDC3F
:102A20008547BEC093070010BEC693070040BEC8CE
:102A300093070002BECA4C188D6713858400BECC74
:102A400002DE82C282C482CEEFD01FAA1385840028
:102A50008545EFD0FFAC9D460546130504408545EE
:102A6000EFD05F93854513050440EFD03F9125617A
:102A70006FD04FF23306B502B7F700E0D843799B29
:102A8000D8C3B336B50290CBD4CB984313670701B4
:102A900098C398431367170298C3D843058B75DF13
:102AA0009843799B98C38280EFD28FEC2A84156576
:102AB00013055555EFD0BFD10145EFD0DFD12285A9
:102AC000EFD0FFD1EFD03FD2EFD0DFD26FD08FEC7D
:102AD000B7170140938707C0D84713470720D8C7C7
:102AE0008280B7170140938707C0D8471347071064
:102AF000D8C78280EFD2CFE783A70188850723A0BC
:102B0000F18803C6C1891147630BE6049376F60F7B
:102B1000636FD70037170140130707C09DC693079F
:102B200000205CCB930700101CCB6FD0AFE6994719
:102B3000E39DF6FEB7170140938707C013070020F7
:102B400098CB13070010D8CBCDB79306001014CB49
:102B50001307007DB3F7E702E9FB9D3FF9B737178D
:102B60000140130707C09306002014CB1307007D14
:102B7000B3F7E702DDFBB5374DBFEFD2CFDD411133
:102B800085453545EFD07FD6371401401309002025
:102B90008D49414A4C00130504C04AC24EC452C676
:102BA000EFD03FA0930400104C00130504C01304A1
:102BB00004C0648252C64EC4EFD0BF9E232A2401B3
:102BC00004C841016FD06FDCEFD28FDA2A8411651F
:102BD000011185452505EFD05FD185451145EFD021
:102BE0003FAB930700047C82371501408D473EC4FC
:102BF0004C00E147130505C03EC6EFD09F9A22C89E
:102C000037440140B70708000C08130504803ECC88
:102C100002CA231E0100EFE08FCB85451305048017
:102C2000EFE02FD605616FD0EFD6B7071000011186
:102C3000FD1733F8B70093D84601F58F22CC13D493
:102C40004501139737000E084AC84EC69357D60160
:102C50009359D50113D9F5011374F47F93F8F87FD4
:102C600006CE26CAFD82B3E90901D98F9315350036
:102C700013183600330714416304D918635EE0105B
:102C8000638808209306F07F6306D452930680037E
:102C9000854463C9E602B7068000D58FFD4663C749
:102CA000E64293060002998EB394D7003356E800AB
:102CB000B316D800D18CB336D00033D7E700D58C0B
:102CC000B389E940B3849540B3B79500B389F9401F
:102CD000B707800033F7F90063080724FD17B3F93D
:102CE000F9006386092A4E85EF10F030130785FF3F
:102CF00093060002B387E640B3D7F400B399E90026
:102D0000B3E73701B394E40063458732018F0507C9
:102D1000998E3396D400B3D9E4003336C0003366BD
:102D20003601B396D700B3E4C600B3D9E700014437
:102D300093F7740081CF93F7F40011476388E7009D
:102D400093874400B3B49700A699BE84B707800068
:102D5000B3F7F9006387072805049307F07F630042
:102D6000F41CB70780FFFD17B3F7F9001397D701DD
:102D70008D80A607458FB1831374F47F52047E09BA
:102D80005D8C33642401F240A2856244D2444249FE
:102D9000B2493A8505618280630F07103387884006
:102DA0006318043033E5B900630E05261305F7FFF9
:102DB000630E05481303F07F630A6742130780031D
:102DC00085446346A7022A877D466340E64413068E
:102DD0000002198EB394C90033D5E5003396C500BF
:102DE000C98C3336C00033D7E900D18C998FB30436
:102DF000984033389800B389074146843689C9BD65
:102E00006359E01263900810B3E60701638F062050
:102E10001306F7FF630506369306F07F630ED7446B
:102E20001307800385466346C7023287FD4663CB9E
:102E3000E63813060002198EB396C7003355E80032
:102E40003316C800C98E3336C00033D7E700D18EA1
:102E5000BA99B387B600B3B6D700BE84B699B707A0
:102E60008000B3F7F900E9C305049307F07F630816
:102E7000F40AB70780FFFD17B3F7F90013D7140062
:102E80008588458F9394F701D98C93D917004DB558
:102E9000B3E60701638B06189306F7FF63810630DC
:102EA0001306F07F630FC714130780038544E34BB9
:102EB000D7E03687E5B3130714001377E77F631570
:102EC000071CB3E8B90033E707016310042A638BDA
:102ED0000838630C073AB384054133B7950033864D
:102EE000F940198E37078000718F63010740B305E1
:102EF000B840B38737413338B800AE84B38907414F
:102F000036893DB59306F07F630DD40E130680031A
:102F10008546E340E6F4B7068000D58F01BF130471
:102F2000F07F8147014799BD13F77400E31507E06F
:102F300089AA6307071033878840630D041A930634
:102F4000F07F638DD82A1306800385466349E60225
:102F5000B7068000B3E9D900FD4663C6E63613061E
:102F60000002198EB396C90033D5E5003396C5002B
:102F7000C98E3336C00033D7E900D18EBA97369860
:102F8000B336D800C284B389F6004684C9BD26850D
:102F9000EF10700613078501FD46E3DBE6D49307C7
:102FA00085FFB397F40063498716B30487401387FE
:102FB000140063DBE634851493060002B3D4970053
:102FC000630BD700930600043387E640B397E7000E
:102FD000B337F000DD8C13F774000144E31D07D410
:102FE0004DA093D734001397D9019306F07F5D8FDE
:102FF00093D73900630FD400B207B1831374F47F01
:10300000B5BB0E059397D901135735005D8F93D744
:1030100039005D8F09D701491304F07FB707080015
:103020000147A9BBC285BE89368993D735003A844A
:103030005DBFB70980FFFD19198CB3F93701CDB910
:103040009306140013F7E67F6DE333E7B9006311CD
:10305000041E630A072433E70701630D07242E9833
:10306000CE97B335B800B389B7003707800033F780
:10307000E900C28419C7B70780FFFD17B3F9F9004B
:103080000544A685228755B7B384054133B795001B
:103090003386F940198E37078000718F45EF33E78B
:1030A000C400B289E31F07C2014901448147F9B155
:1030B0001305F07F638CA812130680038544E34850
:1030C000E6D237068000B3E9C900FDB9930607FED2
:1030D00013060002B3D6D700630AC7001306000424
:1030E0003307E640B397E7003368F800B3340001D4
:1030F000D58CC9BEB3E6B9006382061A1305F7FF83
:103100003DCD9306F07F630BD70E130780038546F2
:10311000E347A7E62A8789B5B70680FFFD16F58F36
:10312000198C1397D7018D83C1BD1307F07FE388F6
:10313000E6DE33870501CE97B335B700AE9705833A
:103140009394F701D98C1D8B93D917003684E3141F
:1031500007BE05BFB305B840B38737413338B80061
:10316000AE84B38907413689ADBE639C08126315EE
:10317000071801491304F07FB707080001B12E9822
:10318000CE97B335B800B389B700B7078000B3F75F
:10319000F900C2840544E38907D80944D9B93388C2
:1031A0000541B387F940B3B50501C284B389B7407F
:1031B000054439BE0E050D811397D901498F93D768
:1031C000390081BD130607FE9306000233D6C700FF
:1031D000630AD700930600043387E640B397E700FD
:1031E0003368F800B3360001D18EA5B10E061397EF
:1031F000D7010D82518F8D83368921BD0E0613971D
:10320000D7010D82518F8D8329B5130607FE130553
:10321000000233D6C9006309A70013050004330771
:10322000E5403397E900D98DB334B000D18CC1B6F5
:1032300071D733E80701E31008DE0E059397D90133
:103240000D813367F50093D73900E1B3B305B8407A
:10325000B38737413338B800AE84B3890741368924
:103260000544BDB4E30207E40E061397D7010D82AF
:10327000518F8D83368949B3931735008D8313970A
:10328000D9015D8F93D7390069B3931735008D83CA
:103290001397D9015D8F93D73900B9BBC285BE8919
:1032A00069B341DF8DBB0E061397D7010D82518F95
:1032B0008D8399B30E059397D9010D813367F5007E
:1032C00093D7390015BB130607FE9306000233D6C9
:1032D000C9006309D700930600043387E64033979B
:1032E000E900D98DB336B000D18E51B933E7C400AF
:1032F000B289E31807D84DBB0E061397D7010D828C
:10330000518F8D83368931B393060002998E014621
:1033100039B413D84501B7071000FD1793D84601FB
:103320001378F87F130EF07F33F3B7002A87AA8E45
:10333000FD81328FF58F93F8F87F13D5F601630C7A
:10334000C803638DC801631508043367E300639EF7
:1033500008025D8E25C235EB1DC582805D8E25E697
:10336000631608003363E300E30803FE639BA500D4
:1033700099C92E8582803363E30063160304638E4C
:1033800008030545F9D97D5582806DF379F5E5BFD0
:10339000E38908FEE397A5FEE3C508FFE34A18FDAD
:1033A000E3E167FEE316F3FCE36DDFFD0145E3E1D6
:1033B000EEFD8280014571F78280D18F89E7E3922B
:1033C000A5FC0145828079558280E38BA5FC55BF21
:1033D000397193D7450122DC26DA4ED662CC93941C
:1033E000C50006DE4AD852D456D25AD05ECE93F7E4
:1033F000F77F2A84328CB18093D9F5016386071652
:103400001308F07F6382071B8E049355D501C58D89
:10341000B7048000CD8C131A3500938B17C0014B75
:10342000814A93D746011398C60093F7F77FE28E3F
:103430001354C80013D9F601F5C71308F07F638E43
:10344000070793163400938717C09355DC01D58D79
:10345000338E7701B7068000A94733E4D500931E69
:103460003C00014513031E0063C6671933C82901D8
:10347000C2860946634766079308FBFF854563EBF1
:10348000151B630DC51285473688631FF5068147F6
:1034900081460147F2506254D207D58F7E08B3E7C8
:1034A0000701D2544259B259225A925A025BF24B46
:1034B000624C3A85BE852161828033678401138E18
:1034C000FB7F63090710056733C8290113070780CD
:1034D000136B3B002946C2863383EB00634366438C
:1034E0000D450546331666011377065305C3894714
:1034F0006386FA0C8D476388FA12568585472684C1
:10350000D28E3688E305F5F81A8E79A493770624CF
:10351000C5EF13768608630F0610CA86A284768AE2
:10352000AA8AF1B7B3678401FDC3630B0432228515
:10353000EF10602C2A8E130755FFF547930E8EFF70
:10354000998FB316D401B357FC0033E4D700B31EF0
:10355000DC01338ECB41130EDEC0A94701451303B6
:103560001E00E3D567F179A033EAA400630C0A08D2
:1035700036C66388042C2685EF10E027B2462A87DA
:10358000130655FFF547130A87FF918FB394440143
:10359000B357F400DD8C331A44019307D0C0B38BCA
:1035A000E740014B814AB5BD33EAA40063160A0423
:1035B0008144214B930BF07F894AA5B53688930748
:1035C000F07F81460147F9B501489307F07FB706C0
:1035D0000800C9B5856793870780136B2B00A94640
:1035E0003383FB0063D2662B814EB9470945AD4654
:1035F0006387D730CE86E5BD2A8A314B930BF07FA7
:103600008D4A05B58144114B814B854A19BD5E8EAB
:10361000136B1B00A9470144814E054513031E008F
:10362000E3D667E5C1BF01489307F07FB7060800FE
:1036300001478DB5C1651387F5FF93570A0193D8EC
:103640000E01337AEA00B3FEEE003307DA03338665
:10365000D70313550701B3864803B2963695338FC7
:1036600017036373C5002E9FC1631386F3FFB37501
:10367000C500B376C400718F935F0401C205B30225
:10368000DA02BA9541813387D70213D60201338A11
:103690004F033A9A5296B387F7036373E6009E97F7
:1036A00041691304F9FF3377860093D30401B3F221
:1036B0008200E18C420733849E02169741823E9637
:1036C0003A95B382980293570401B38ED303F692CE
:1036D0009697B388780263F3D701CA984169930E2D
:1036E000F9FFB3F2D701B37ED401C202C183C697FA
:1036F00033849602B388D201B386D3029352040175
:10370000B3849F02B694A692B38E7F0263F3D20075
:10371000CA9EC16FFD1FB3F6F2013374F401C206F5
:103720007A95A29636963337E5003297AA98BA97DB
:1037300033B5A8003E95B336D6003336C700D18ED8
:1037400033B7E70013D60201B337F5005D8FB296A9
:1037500036977697939E9800935775012607B3EE98
:10376000BE003364F700B33ED00193D77801B3EEC7
:10377000FE00B70700012605E18FB3EEAE0089CF4A
:1037800093D71E0093FE1E001317F401B3E7D70171
:10379000B3EEE70005801A8E9307FE3F635AF004EC
:1037A00013F77E0001CF13F7FE0091466308D700A0
:1037B00013874E00B33ED7017694BA8E37070001C7
:1037C000618F19C7B70700FFFD177D8C93070E4067
:1037D0001307E07F6345F70A93DE3E001317D40119
:1037E000931694003367D701B18293F7F77F5DB1E9
:1037F0000547D5E3130EEE413396CE013336C000B4
:10380000331EC401B3DEEE003366C6013366D60153
:1038100093777600B355E40081CF9377F600114794
:103820006388E7009307460033B6C700B2953E862B
:10383000370580006D8D854781460147E31C05C42F
:1038400075A0EF00507B13065501F147B2461307F0
:103850000502E3D9C7D26115014AB314A40035BBF0
:103860006285EF00507913075501F147130E0502E9
:10387000E3D5E7CC6115814E3314AC00D9B9930779
:10388000F07F8146014739B133C82901C28601441E
:10389000814E0945F9BE1D8F93068003E3C9E6BE3C
:1038A000FD46E3D9E6F48556B387F6409306000259
:1038B000B357F4006308D700130EEE43331EC40160
:1038C000B3EECE013336D0015D8E1377760081469C
:1038D0001DC39377F600114781456389E70093077D
:1038E000460033B6C700B335C0003E8693969500B8
:1038F0001397D501B1820D82518F814761BE3A8401
:1039000029B93D476317EB000148B7060800014796
:1039100051B62287AD470D45D9B9B7071000FD173D
:103920000111B3F8B70013D84601F58F8E0813972D
:10393000370022CC26CA13D445014AC89357D60172
:103940001359D50106CE4EC61378F87F1303F07FC6
:1039500093D4F501336919011374F47F931835007A
:10396000FD82D98F931536006302681C93C616003A
:10397000330704416382D4126357E0686304081E6E
:10398000630C645293068003854963CBE602B70655
:103990008000D58FFD4663C3E63E93060002998EF4
:1039A000B399D70033D6E500B396D500B3E9C90083
:1039B000B336D00033D7E700B3E9D9003309E94083
:1039C000B3893841B3B738013309F940B7078000EC
:1039D0003377F90063070728FD173379F900630788
:1039E00009284A85EF003061130785FF930600021E
:1039F000B387E640B3D7F9003319E900B3E72701ED
:103A0000B399E900634C872E018F0507998E339691
:103A1000D90033D9E9003336C0003366C900B39604
:103A2000D700B3E9C60033D9E700014493F7790022
:103A300081CF93F7F90011476388E7009387490026
:103A4000B3B937014E99BE89B7078000B377F90043
:103A50006389072605049307F07F630EF41EB707FA
:103A600080FFFD17B377F9001397D70193D9390079
:103A7000A60733673701B1831374F47F8588520436
:103A8000FE045D8C458CF240A2856244D2444249DA
:103A9000B2493A8505618280635BE0586312081A77
:103AA000B3E6B700638806241306F7FF6302063CFB
:103AB000630367441307800385466346C702328762
:103AC000FD4663C3E64013060002198EB396C70095
:103AD00033D5E5003396C500C98E3336C00033D7E1
:103AE000E700D18E3A99B3871601B3B6D700BE89E5
:103AF0003699B7078000B377F90063840716050489
:103B00009307F07F6309F414B70780FFFD17B377BD
:103B1000F90013D7190093F9190033673701939906
:103B2000F701B3E9E90013D9170009B733E7B70084
:103B30001303148029CB638CD404630C030A63033E
:103B4000041A0E061397D7010D82518F8D83B68408
:103B50005D8F6302071081441304F07FB7070800EC
:103B6000014731BFB3E6B700638606189306F7FF37
:103B700063890632630E6730130780038549E3418A
:103B8000D7E4368701BD93C61600E398D4FA630ED6
:103B90000316631404261307F07FB36619016388C4
:103BA000063C9306F7FF6385062C1305F07F63063A
:103BB000A7241306800305476345D6027D47634E5D
:103BC000D73E13060002158E3317C90033D5D8002F
:103BD0003396C800498F3336C000B356D900518F91
:103BE000B697BA9533B7E500AE893309F70042843A
:103BF00009B7130714001377E77F631D071433E732
:103C0000B70033681901631B042463030832630798
:103C10000734B389B84033B738013306F940198EF9
:103C200037078000718F6305073CB3881541B38760
:103C30002741B3B51501C6893389B740B684FDB3B2
:103C400063086424130680038546E34EE6E8B7065E
:103C50008000D58FB5B585881304F07F8147014773
:103C600039BD13F77900E31607DCD5A04E85EF00C8
:103C7000903813078501FD46E3DAE6D6930785FF02
:103C8000B397F90063428718B30987401387190077
:103C900063D6E636851993060002B3D93701630C63
:103CA000D700930600043387E640B397E700B337A5
:103CB000F000B3E9F90013F779000144E31B07D6DC
:103CC00079A093D739001317D9019306F07F5D8F40
:103CD00093573900E30ED4E6B207B1831374F47F2F
:103CE000858871BB1307F07F3365190145ED3E8967
:103CF000AE88B68493D738003A84F1B7370980FF8D
:103D00007D19198C33F9270115B39306140013F7A5
:103D1000E67F6314071033671901631A041C6306F6
:103D2000072633E7B70063010728C695CA97B3B8DB
:103D3000150133891701370780003377E900AE8911
:103D400019C7B70780FFFD173379F9000544CE88FE
:103D500022874DB7B389B84033B738013306F940ED
:103D6000198E37078000718F79EF33E7C9003289E8
:103D7000E31707C681440144814711B3930607FE48
:103D800013060002B3D6D7006309C7001306000468
:103D90003307E640B397E700DD8DB339B000B3E9F0
:103DA000D90039B91305F7FF630E05181303F07F27
:103DB0006304671E13078003B68485496347A7021F
:103DC0007D476343A71413070002098FB319E90065
:103DD000B3D6A8003397E800B3E9D9003337E00041
:103DE0003355A900B3E9E900898FB3893541B3B5EB
:103DF00035013389B7404284D1BE0E061397D701EF
:103E00000D82518F8D83A9B3B70680FFFD16F58F04
:103E1000198C1397D7018D83C1B51307F07FE38CFD
:103E2000E6E23387B800CA97B3381701C69705830F
:103E30009399F701B3E9E9001D8B13D91700368474
:103E4000E31907BE29B7B3881541B3872741B3B536
:103E50001501C6893389B740B68451B6631C081072
:103E6000E31107CE81441304F07FB707080001B9BE
:103E7000C695CA97B3B8150133891701B7078000F3
:103E8000B377F900AE890544E38D07DC0944ADB989
:103E90000E059317D901135735005D8F93573900DD
:103EA00045B9B385B840B307F940B3B8B800AE8997
:103EB00033891741054419BE0E051317D9010D8129
:103EC000498F9357390069B1130607FE9306000224
:103ED00033D6C7006309D700930600043387E64052
:103EE000B397E700DD8DB336B000D18EEDBE6DCB5C
:103EF000DD8DE39205C60E059317D9010D81336759
:103F0000F50093573900A9B1130705FE9306000287
:103F10003357E9006309D50093060004898EB31670
:103F2000D900B3E8D800B3391001B3E9E90075BD91
:103F3000E30207E40E061397D7010D82518F8D839C
:103F4000B68459BBB3881541B3872741B3B5150172
:103F5000C6893389B740B68405448DBC93173500B4
:103F60008D831317D9015D8F93573900B5B33E89FF
:103F7000AE8849B3E31107BE931735008D8313173D
:103F8000D9015D8F93573900E1B60E061397D7011B
:103F90000D82518F8D8389B30E061397D7010D8241
:103FA000518F8D83B6846DB60E059317D9010D819F
:103FB0003367F5009357390005B3138606FE1307E0
:103FC00000023356C9006389E60013070004158F09
:103FD0003317E900B3E8E80033371001518F11B10E
:103FE0000E061397D70193563600558F8D838DB6E5
:103FF00033E7C9003289E31C07D4ADBB9306000246
:10400000998E014619BCE30607BE330588402A870E
:10401000E30C04CC130780036348A7003707800034
:104020003369E900B68469BBB68485497DBBE30E7C
:1040300007CCB306884019E0368785B6130680039F
:104040000547E340D6BA370780003369E900BDB6BB
:1040500093D74501B70610001387F6FF93F7F77F54
:104060001306E03F6D8FFD81635BF6001306D041C0
:104070006359F600370500807D152E958280014535
:104080008280130630431D8E7D48558F635DC800C6
:1040900093063041B387F6403357F7003305E040CD
:1040A000E5F13A8582809387D7BE3317F700335501
:1040B000C500498FE5B793D74501370610001307B0
:1040C000F6FF93F7F77F1308E03FAA866D8F01454F
:1040D000FD816353F80091C182809305E0417D55D5
:1040E000E3CCF5FE930530439D8D7D45518F634AAA
:1040F000B5009387D7BE3317F70033D5B600598D77
:104100008280130530411D8D3355A70082804111F7
:1041100006C622C426C20DCD1357F541B344A700ED
:10412000998CAA87268513D4F701F1259307E041DE
:10413000898F294793F7F77F634BA7022D47098F94
:1041400033D7E40055053207B394A400318329A086
:104150000144814701478144D2077E04D98FB24090
:10416000C18F22442685BE85924441018280551527
:104170003397A400320731838144F9BF411122C42F
:1041800006C62A841DC9852D9307E041898F2947DA
:1041900093F7F77F634DA7022D47098F55053357D6
:1041A000E4003314A400B240228532072244318354
:1041B000D207D98FBE8541018280B24022858147D6
:1041C00022440147D207D98FBE854101828055150F
:1041D0003317A4000144B2402285320722443183C0
:1041E000D207D98FBE8541018280797193577501BD
:1041F0004AD04ECE06D69319950022D426D252CC60
:1042000056CA5AC893F7F70F93D999001359F50175
:10421000F1CF1307F00F6381E70E8E093707000413
:10422000B3E9E900938A17F80144014B93D775016C
:10423000139A950093F7F70F135A9A0093D4F50148
:10424000C1C71307F00F6380E70C0E0A370700049D
:10425000336AEA00938717F80146BD463347990051
:10426000B38AFA4063E9861A97260000938606B659
:104270000A0436941C40B69782879307F00F814654
:10428000B250225413957701558D7E0792540259EE
:10429000F249624AD24A424B598D456182808D472C
:1042A000630EFB0085476313FB0E2A878147814617
:1042B000C1BF8D472685D289631AF60C0147930743
:1042C000F00FB70640006DBF631C0A0813641400AA
:1042D000B54733479900E3E287FA972600009386B3
:1042E000E6B20A0436941C40B6978287639B0904A1
:1042F0001144814A054B1DBF639009042144930A70
:10430000F00F094B25B763130A02136424007514D8
:10431000AD4633479900E3EB86F8172600001306F5
:1043200066B20A0432941440B29682861364340052
:104330009307F00F0D4615B73144930AF00F0D4B5C
:10434000F5B54E852EC645299307B5FFB399F900FB
:104350009307A0F8B245B38AA7400144014BF9B5D1
:10436000528551299307B5FF331AFA009307A0F835
:10437000898F0146DDB5938A1AF089474A85E31093
:10438000FBF22A879307F00F8146DDBD2A879387CA
:10439000FA076351F00493F6790099C693F6F90091
:1043A00011466383C6009109B7060008B3F6D90029
:1043B00081CAB70700F8FD17B3F9F90093870A0817
:1043C0009306E00FE3CBF6EA93966900A58293F794
:1043D000F70F7DB5054699C71D8EED45814781468E
:1043E000E3C0C5EA9386EA09B396D900B336D00094
:1043F000B3D7C900D58F93F6770099C693F6F70027
:1044000011466383C6009107B7060004FD8ED5CA26
:1044100085478146B5B5C16613185A00FD169355F8
:104420000801B376D80063F8490733D6B902CE87BE
:10443000FD1A81493305D602B3F7B702C207B3E7C5
:10444000370163F8A700C2979308F6FF63F60707E2
:104450004686898F33D5B702B3F7B702B306D502C4
:10446000C20763F2D702B3850701B3B8F50013039F
:10447000F5FFAE876398080063F6D5007915B3871A
:10448000050111A01A854206958F498EB337F000B9
:10449000B369F600EDBD93D7190033D6B702FE0914
:1044A00093D909013305D60241BF26852A87FDBB72
:1044B0000147B7064000E9B3E3FCA7F87916C297B5
:1044C00049BF9A0793D6970081475DBB268555BDA6
:1044D00013567501370780007D1793D67501137643
:1044E000F60F1308F00FB378A7009357F5016D8FFF
:1044F00013F5F60FFD8163060603630A050105EE59
:1045000011E929CB639F0804B9C92E85828009452A
:1045100001EB19E2E38A08FE638BB7020545A1E3CC
:104520008280639C0802E31BC5FE094575FBE39787
:10453000B7FE014582807DD1E392B7FEE340C5FE20
:104540006347A600E36C17FD0145E3FBE8FC81CB64
:104550003E858280E39408FC8280094582807D55F7
:104560008280E381B7FE5DBF370680001357750177
:104570009307F6FF1377F70F9305E007B3F6A7004D
:104580009357F50163DBE5009305D00963D9E50096
:10459000370500807D153E95828001458280930518
:1045A0005009D18E63CDE500130660093307E6405C
:1045B000B3D6E6003305D040F5F336858280130785
:1045C000A7F6B396E600FDB7411106C622C426C27F
:1045D00015CD1357F5413344A700198CAA872285BE
:1045E00093D4F701092C1307E009B307A740130779
:1045F0006009634AF70221476308E508611533172C
:10460000A4002607258313F5F70F21A08144014557
:104610000147B24022445E059397F401598D9244BC
:104620005D8D41018280130790096343F7041547AC
:104630009306B5FF6304E5003314D400B70600FC0D
:10464000FD16137674003377D40011CE3D881146E1
:10465000630BC400110737060004798E09C693075F
:10466000F009758F898F1A07258313F5F70F55B752
:104670001307B50195463317E400898E3354D400EF
:104680003337E000598C5DBF26041357940013059F
:10469000600941B70DCD411122C406C62A84A12A62
:1046A0009307E009898F130760096347F7022147E1
:1046B000630AE50861153317A4002607258313F55F
:1046C000F70FB24022445E05598D410182800145B9
:1046D00001475E05598D8280130790096348F704EE
:1046E00015479306B5FF6304E5003314D400B706FD
:1046F00000FCFD16137674003377D40011CE3D888C
:104700001146630BC400110737060004798E09C6F1
:104710009307F009758F898FB24022441A0713F569
:10472000F70F25835E05598D410182801307B5017E
:1047300095463317E400898E3337E0003354D400B4
:10474000598C75B72604135794001305600995BF5B
:104750009357750193F7F70F41111387170022C480
:1047600026C206C6931495001377E70FA58013544D
:10477000F50115C313D7340093870738F6041315D2
:10478000F401B2402244D207D98FC98FBE85268555
:104790009244410182809DE7B1C02685A928A9479E
:1047A00063C5A7042D47098F9307550133D7E4004C
:1047B000B394F400930790383207898F318393F7CD
:1047C000F77F75BF99CC13D73400B70708005D8F0A
:1047D0003207F60431839307F07F55B781470147CD
:1047E00079BF9307F07F014759BF130755FF3397F0
:1047F000E4008144C1B7C1676375F50293370510C2
:1048000093C717008E07130700021D8F3355F5005D
:104810009717000093870766AA9788233305A74058
:104820008280B7070001637FF500C1473355F5006B
:104830009717000093870764AA9788234147330599
:10484000A7408280E1473355F50097170000938712
:104850006762AA97882321473305A74082805D714C
:1048600022D406D62A842EDA32DC36DEBAC0BEC2A4
:10487000C2C4C6C603A5018111C51C4D81E72AC665
:10488000792D32450C455418228636CEEF00B038CB
:10489000B250225461618280011126CA06CE22CC18
:1048A0004AC84EC652C4AA8419E11C4502901C4D48
:1048B0002E89BDE3AD259C4C8044ADC39717000005
:1048C0009387077C631FF404C0407C50858B81EB89
:1048D0005E2493F7072081E7284CEF00207E5E24BA
:1048E000A18B99C31C48DDE3A2852685592459CDA7
:1048F000FD547C50858B81EB5E2493F7072081E784
:10490000284CEF00C07BF24062444249B249224A3F
:104910002685D2440561828000454DB72685012554
:1049200071BF971700009387A7736314F400804446
:1049300069BF971700009387A770E318F4F8C04485
:1049400069B71CC4050963C807021C401387170018
:1049500018C08CA31C4483450900FD17FDF11CC43D
:1049600063D907022286A9452685B122FD57E301B6
:10497000F5F8A944BDBF184C63C4E700E39745FDB3
:10498000228626850D2AE31735FD9DB7FD59294A54
:10499000D1B71C401387170018C0294798A3D1BF6F
:1049A000AA8503A50181CDBD411126C283A4018141
:1049B0009C5C22C406C62A84B9E76145EF00007FEB
:1049C00088DC09ED971600009386C65A01469305C8
:1049D0002004171500001305655B5924B737CDABCC
:1049E0009387E7301CC1B7176DE6938747235CC1F7
:1049F000B7E705009387C7EE1CC5AD475EA5054721
:104A0000814718C95CC99C5CB240924480CB224467
:104A100023AA070041018280411122C403A401811D
:104A20001C5C06C6B9E76145EF00407808DC09ED7B
:104A3000971600009386065401469305E004171567
:104A400000001305A554292CB737CDAB9387E73069
:104A50001CC1B7176DE6938747235CC1B7E7050014
:104A60009387C7EE1CC5AD475EA50547814718C9AA
:104A70005CC90C5CB786954C37F651589849DC49AF
:104A80009386D6F21306D6423306C702B2402244BA
:104A9000B387D7023305D702B2973337D702BA9715
:104AA000130715003335A7003E95C8C998C90605F8
:104AB000058141018280011122CC26CA4AC806CE56
:104AC0004EC6AA842E89328401C51C4D91E38129EA
:104AD000971700009387C75A6317F402C0401C4C15
:104AE0001CC45E24A18B99C31C4895EFA285268522
:104AF000492015C97D59F2406244D244B2494A85E1
:104B000042490561828097170000938767556314B7
:104B1000F4008044E9B79717000093876752E310C9
:104B2000F4FCC0446DBF1C4808409379F90F137919
:104B3000F90F1D8D5C486346F500A285268571241A
:104B400055F91C440505FD171CC41C4013871700AC
:104B500018C0238037015C486388A7005E24858BDA
:104B6000D9DBA947E319F9F8A2852685B92C41D5E7
:104B700051B7411122C426C24AC006C683A401818E
:104B80002A892E8489C49C4C99E32685492E97173F
:104B900000009387E74E6313F402C0408317C400FC
:104BA00013F7870025E713F707010DEB25472320AF
:104BB000E90093E707045EA47D5571A097170000F4
:104BC0009387074A6314F4008044C9BF9717000015
:104BD00093870747E314F4FCC044C9B7918B9DC386
:104BE0004C5889C9930744046384F5004A85D92346
:104BF000232A04025E242322040093F7B7FD5EA457
:104C00001C481CC05E2493E787005EA41C4899EBF7
:104C10005E241307002093F707286385E700A28529
:104C20004A85E5298317C40013F717001DC35848A8
:104C3000232404003307E04018CC1848014501E75D
:104C400013F707083DF7B24022449244024941015C
:104C5000828013F72700814611E3544814C4F1BF42
:104C6000411183A70181328806C6AA882E87C847CA
:104C70003686971700009387A738631708009717A1
:104C800000009387A70F3E88C6869715000093857E
:104C90002538712EEF0010348397C500011122CC06
:104CA00026CA06CE4AC84EC613F78700AA842E84A9
:104CB00079E3D8416345E000B8416356E0085854B1
:104CC00059C3B18303A90400858B23A004000C50B1
:104CD000A9CB70485E24918B99C75C401D8E5C58AF
:104CE00099C33C401D8E5C540C50814626858297AA
:104CF000FD57630CF5041C480567232204001CC003
:104D00005E24F98F91C368C84C5823A0240185CD37
:104D1000930744046384F50026856929232A040245
:104D20001DA00146854626850297FD572A86E31376
:104D3000F5FA9C40C5D375476385E70059476395ED
:104D4000E70623A024010145B5A098408317C400BD
:104D500001CFF5466305D700D9466319D7041C482F
:104D6000232204001CC04DB71848B183232204003D
:104D700018C0858B41BF83A90501E38609FC03A9FF
:104D800005008D8B23A0350133093941014791E39B
:104D9000D84918C4E35920FB1C540C50CA864E86CF
:104DA00026858297634FA0008317C40093E707040A
:104DB0005EA47D55F2406244D2444249B249056145
:104DC0008280AA993309A940F1B79C49411106C6CE
:104DD00022C426C281EB8144B240224426859244FB
:104DE00041018280AA842E8401C51C4D91E3052ACD
:104DF000971700009387C728631CF402C0408317ED
:104E0000C400F1DB7850058B11E793F7072099E395
:104E1000284C6D242685A28541357C50AA84858B3B
:104E2000C5FF5E2493F70720C5FB284C492C6DB7BE
:104E3000971700009387C7226314F4008044C1B71A
:104E4000971700009387C71FE31BF4FAC04445BFC0
:104E5000411122C406C62A844EA572A5232005004E
:104E6000232205002324050023220506232805000C
:104E7000232A0500232C0500214681451305C5057D
:104E8000EFB00FB2971700009387A7875CD09717F2
:104E900000009387C7891CD4971700009387A78DBC
:104EA0005CD49717000093870790B24000D01CD8BD
:104EB00022444101828097050000938545F151AA63
:104EC000411126C2930780069384F5FFB384F40250
:104ED0004AC02E8922C406C693854407E9262A843F
:104EE00001CD2320050023222501310508C41386A6
:104EF00084068145EFB0CFAAB24022852244924475
:104F0000024941018280138581884DAA13858188D9
:104F10007DA21385C1885DA21385C1884DA2411170
:104F200022C406C62A84F5371C4C89C72244B240E5
:104F30004101DDB797070000938727F81CD423248D
:104F40000404232604042328040483A7018663940D
:104F5000870085471CCC22853D2048C0228525201E
:104F600008C422850D2048C4484001469145CD35EE
:104F700008440546A545E93D48440946C945C93D9B
:104F800085471CCC65B7411126C24AC006C622C45B
:104F90002A89953F83A401869C4C99E32685413755
:104FA000938484048044DC40FD1763D607009C4052
:104FB000BDC38440C5BF0317C40039EBC177850763
:104FC0005CC41305840523220406C52881372146C5
:104FD00023200400232404002322040023280400A7
:104FE000232A0400232C040081451305C405EFB0D7
:104FF0002F9B232A0402232C0402232404042326A7
:105000000404B24022852244924402494101828034
:105010001304840651BF91454A85EFF07FEA88C0AA
:105020002A8441F9E535B1472320F900D9BF397108
:1050300032D436D62E863410AA8503A5018106CE39
:105040003AD83EDA42DC46DE36C6F126F24021612D
:105050008280797122D44AD04ECE52CC5AC85EC6D4
:1050600006D626D256CA2A892E8A13048504814977
:10507000054BFD5B0444832A4400FD1A63D00A02F9
:1050800000406DF8B250225492540259624AD24AFA
:10509000424BB24B4E85F24945618280DE24637BF0
:1050A000FB008397E40063877701A6854A85029A0F
:1050B000B3E9A90093848406C9B782808280828084
:1050C0005971A2D42E848395E500A6D2CAD086D683
:1050D000B284368963D205025E2493F7070895EB04
:1050E00013070040B65026542320F90098C00659F3
:1050F00096540145656182803000EF00C070E34D39
:1051000005FC3247BD67F98F7977BA9793B71700D7
:10511000C1BF814713070004F1B7DE25797122D49E
:1051200006D626D24AD04ECE898B2E8491CF9307B5
:1051300074041CC01CC885475CC8B25022549254E9
:105140000259F2494561828074003000AA848D3F83
:10515000A2492A892685CE85B92219E98317C40078
:1051600013F7072079FBF19B93E727005EA4C1B7F3
:1051700097070000938767D49CD45E2408C008C8B2
:1051800093E707085EA4B247232A340199CB83151D
:10519000E4002685692D11C55E24F19B93E7170075
:1051A0005EA45E2433E527014AA441BFAA8503A576
:1051B0000181D5A8D1CD83A7C5FF011122CC06CE90
:1051C0001384C5FF63D307003E942AC6E9251387DD
:1051D00041891C43324581EB2322040000C3624411
:1051E000F24005616DAD637DF4001040B306C4006C
:1051F0006396D7009443DC43B29614C05CC0F9BFF9
:105200003E87DC4399C3E37DF4FE14433306D700A5
:10521000631F86001040B29614C33306D700E39094
:10522000C7FC9043DC43B29614C35CC34DBF6375A7
:10523000C400B1471CC165B71040B306C4006396F3
:10524000D7009443DC43B29614C05CC040C341BF56
:10525000828041114AC0138901898327090022C431
:1052600026C206C6AA842E8489E78145AD21232063
:10527000A900A285268585217D59631A25017D54C3
:10528000B2402285224492440249410182801304A3
:1052900035007198E30685FEB305A44026852529CF
:1052A000E31025FFE9BF011126CA93843500F19868
:1052B0004AC806CE22CC4EC6A104B1472A8963F360
:1052C000F406B14463E2B4064A85F1239389418927
:1052D00083A709003E8425E4A6854A859D3FFD57A6
:1052E0002A846314F50C03A40900A287D5E7832957
:1052F000040081454A85A299F92E6392A90A1C40AF
:105300008D049D8CF198A104B14763F3F400B1447E
:10531000A6854A853D3FFD576303F5081C40A697C7
:105320001CC03DA8E3D004FAB1472320F900014591
:10533000F2406244D2444249B2490561828014403D
:10534000858E63C806042D47637DD70204C03307EA
:1053500094006396870223A0E9005C4014C35CC3F9
:105360004A85352B1305B400930744006199330730
:10537000F540E30FF5FA3A94898F1CC055BFD8C3A6
:10538000E9BF58406395870023A0E900D1BFD8C387
:10539000C1BFA287404081B73E84DC4381BFB14793
:1053A0002320F9004A85E52959B704C155BF1C4699
:1053B000FD171CC663DA0700184E63C5E700A9474E
:1053C0006394F5006FF02FEF1C422E8513871700B2
:1053D00018C28CA38280011122CC26CA4AC84EC6AC
:1053E00052C406CE2A89AE893284B304D6007D5ACF
:1053F00063149400014501A80C204E864A85453F60
:105400000504E31745FFF2406244D2444249B249E1
:10541000224A05618280357122CD26CB4AC94EC70A
:1054200006CF52C556C35AC1DEDEE2DCE6DAAA89EF
:105430002E843289B68409C51C4D99E3EFF03FAE46
:10544000971700009387C7C36319F40403A44900A6
:105450007C50858B81EB5E2493F7072081E7284CF5
:10546000EFF0DFC55E24A18B99C31C48ADE3A28594
:105470004E85EFF00FF021CD7C50858BA9C37D5573
:10548000FA406A44DA444A49BA492A4A9A4A0A4BD3
:10549000F65B665CD65C0D6182809717000093878F
:1054A00027BC6315F40003A489005DB797170000BB
:1054B000938707B9E31EF4F803A4C90051BF5E2423
:1054C00093F70720CDFF284CEFF07FBF4DBF930728
:1054D0000002A304F1029307000302D22305F102A4
:1054E00026C6930B5002971A0000938A6ABB054C9C
:1054F000294BCA849C2099C3639A7709B38C2441B1
:10550000638E2401E6864A86A2854E85EFF0BFECC5
:10551000FD576307F5189257E6973ED29C206381AA
:105520000718FD571389140002C802CE3ECA02CCE8
:10553000A309010482D483450900154656858126B6
:10554000C2479304190029E513F7070109C7130798
:105550000002A309E10413F7870009C71307B0028B
:10556000A309E104834609001307A002638AE60247
:10557000F247CA8481462546982093851400130774
:1055800007FD6373E6068DC63ECE1DA085049DB75C
:10559000330555413315AC00C98F3EC8268961BF1C
:1055A000324793064700184336C6634807023ACE8F
:1055B00098209307E002631CF70498309307A00239
:1055C000631AF702B2478904138747009C433AC61F
:1055D00063D30700FD573ECA1DA83307E04093E799
:1055E00027003ACE3EC8E9B7B3876703AE84854645
:1055F000BA9759B7850402CA814681472546982043
:1056000093851400130707FD6372E606E9F68C2004
:105610000D4617150000130525A9952411CD9717E0
:105620000000938767A81D8DC24713070004331736
:10563000A700D98F85043EC88C2019461715000095
:105640001305C5A6138914002304B1020D2C35C916
:105650009307000095E74247B2471377071009CF39
:1056600091073EC69257D2973ED261B5B387670382
:10567000AE848546BA9761B79D07E19BA107D5B770
:10568000780097060000938646D522860C084E8542
:1056900097000000E7000000FD572A8AE314F5FC9C
:1056A0007C50858B81EB5E2493F7072081E7284CA3
:1056B000EFF0FFA05E2493F70704E39207DC125596
:1056C000C1B3780097060000938626D122860C0885
:1056D0004E85D524D1B7411122C42A842E8523AC0E
:1056E000018806C6EFB0FFAFFD576316F50083A72C
:1056F000818991C31CC0B240224441018280411182
:1057000022C42E848395E50006C62523634905003F
:105710007C48AA977CC8B2402244410182805E2422
:105720007D777D17F98F5EA4FDB7DE25011122CCB0
:1057300026CA4AC84EC606CE93F70710AA842E84FE
:105740003289B68991C78395E500894601461922B9
:105750005E247D777D17F98F8315E4005EA4624493
:10576000F240CE864A86B24942492685D244056136
:1057700025A8411122C42E848395E50006C6D928A8
:105780007D575E24631AE5007D777D17F98F5EA44F
:10579000B2402244410182800567D98F5EA468C867
:1057A000C5BF8395E5002DA8411122C42A842E850A
:1057B000B285368623AC018806C6EFB0FF9EFD5742
:1057C0006316F50083A7818991C31CC0B2402244AF
:1057D000410182804111194506C6CD2105459D2311
:1057E000411122C42A842E8523AC018806C60923D0
:1057F000FD576316F50083A7818991C31CC0B24091
:10580000224441018280411122C42A842E85B2851E
:1058100023AC018806C6DD21FD576316F50083A77A
:10582000818991C31CC0B240224441018280411150
:1058300022C42A842E8523AC018806C6E129FD579F
:105840006316F50083A7818991C31CC0B24022442E
:1058500041018280411122C42A842E85B285368678
:1058600023AC018806C6D921FD576316F50083A72E
:10587000818991C31CC0B24022444101828093F5CA
:10588000F50F2A966314C500014582801C21E38E22
:10589000B7FE0505C5BF138541886FF03F821385AC
:1058A00041886FF0DF81797156CA9C49BA8A984560
:1058B00022D44AD04ECE52CC06D626D25AC85EC684
:1058C000AA892E843289368A63D3E700BA872320D7
:1058D000F9000347340401C785072320F9001C4061
:1058E00093F7070291C78327090089072320F9004E
:1058F0000440998891E8130B9401FD5B5C440327F5
:105900000900998F63CCF40483473404B336F00064
:105910001C4093F70702A5EB13063404D2854E858D
:10592000829AFD576303F5041C4011478144998B0B
:105930006399E7004444832709009D8C63D30400E6
:1059400081441C4418486354F700998FBE94014960
:1059500069047D5B63982405014509A885465A863C
:10596000D2854E85829A631E75017D55B2502254B0
:1059700092540259F249624AD24A424BB24B4561B3
:1059800082808504A5BF3307D40013060003A3015A
:10599000C7040347540493871600A2978906A3817E
:1059A000E7049DBF85462286D2854E85829AE30E06
:1059B00065FB050945B7797122D44AD04ECE52CC49
:1059C00006D626D256CA5AC803C88501930780074F
:1059D0002A892E84B289368A63E207039307200658
:1059E0009386350463E10703630C081C9307800565
:1059F000170600001306066C6308F81493042404C9
:105A00002301040515A89307D8F993F7F70F554616
:105A1000E366F6FE170600001306466C8A07B29787
:105A20009C43B29782871C43938425049386470046
:105A30009C4314C32381F50485476DA290411C4308
:105A4000137506089385470029C19C430CC3584031
:105A500063DF07129305D002A301B40418C4635E88
:105A60000702B307F040170600001306A664294892
:105A7000B68433F70703FD143297182398A03E87A6
:105A8000B3D70703E37707FF85A09C43137506048C
:105A90000CC355DDC207C1875DBF6D9A10C0D1B779
:105AA00090411C43137506089385470001C50CC33C
:105AB0009C4331A0137606040CC37DDA9E231307A2
:105AC000F006170600001306E65E6310E80C214896
:105AD000A3010404584018C4E34C07F80C40ED99A6
